:020000040000FA
:040000000DEF00F010
:0400080082EF0FF084
:10001800FF00FCEF10F073EC12F076EC0BF0010E21
:100028000001AE6F520E0001776F2B0E766F000E37
:10003800E82EFED7762FFCD7772FFAD700F03F01AE
:100048003D510001B76FB86BB96B6000DCF277F017
:100058006000E0F278F0766B6000D8F1B7F06000ED
:10006800DCF1B8F06000E0F1B9F03F013C5100016B
:10007800B711766F000EB811776F000EB911786F4F
:100088006000DCF178F06000D8F177F0766B600002
:10009800D8F1B7F06000DCF1B8F06000E0F1B9F039
:1000A8003F013B510001B711B76F000EB811B86F8F
:1000B800000EB911B96FB751016EB851026EB9513E
:1000C800036E046A056A066A076A086A000E096E02
:1000D800FA0E0A6E000E0B6E000E0C6E000E0D6E00
:1000E800000E0E6E000E0F6E000E106E54EC0EF029
:1000F800600004F0AFF0600008F0B0F060000CF0B1
:10010800B1F0600010F0B2F0600014F0B3F06000DD
:1001180018F0B4F060001CF0B5F0600020F0B6F004
:100128006000BCF276F06000C0F277F06000C4F2C4
:1001380078F06000C8F279F06000CCF27AF06000E4
:10014800D0F27BF06000D4F27CF06000D8F27DF051
:10015800160EB9EF00F00001D8907D337C337B3365
:100168007A337933783377337633E82EAFEF00F08C
:100178006000D8F1AFF06000DCF1B0F06000E0F1B1
:10018800B1F06000E4F1B2F06000E8F1B3F06000B3
:10019800ECF1B4F06000F0F1B5F06000F4F1B6F005
:1001A8007E0E606F000E616F9A0E626FFF0E636FB6
:1001B8006000BCF264F06000C0F265F06000C4F258
:1001C80066F06000C8F267F06000CCF268F060008A
:1001D800D0F269F06000D4F26AF06000D8F26BF0F7
:1001E80081EC10F082EC12F0000E296E7E0E2A6E61
:1001F800000E2B6E000E61EC0AF0BCEC0FF0CAA0EA
:1002080008EF01F00AEF01F0F8EF01F0CAA20FEFD2
:1002180001F011EF01F0F8EF01F00001AE51D8B490
:1002280018EF01F01BEF01F0010E1CEF01F0000EBA
:10023800AE6F3A011951D8B424EF01F026EF01F05E
:1002480043EF01F03F013E9F000E3A01196F82EC27
:1002580012F0000E296EE90E2A6EFF0E2B6EFF0EAD
:1002680061EC0AF0180E296EC80E2A6EFF0E2B6E6E
:10027800000E61EC0AF0BCEC0FF0ECEF01F0260E7A
:10028800196F3F013E8F0001B751016EB851026EE0
:10029800B951036E046A056A066A076A086A000E9D
:1002A800096EFA0E0A6E000E0B6E000E0C6E000E32
:1002B8000D6E000E0E6E000E0F6E000E106E54ECDA
:1002C8000EF0600004F0AFF0600008F0B0F06000DD
:1002D8000CF0B1F0600010F0B2F0600014F0B3F070
:1002E800600018F0B4F060001CF0B5F0600020F079
:1002F800B6F06000BCF276F06000C0F277F0600003
:10030800C4F278F06000C8F279F06000CCF27AF0BC
:100318006000D0F27BF06000D4F27CF06000D8F28C
:100328007DF0160EA2EF01F00001D8907D337C33EA
:100338007B337A337933783377337633E82E98EF13
:1003480001F06000D8F1AFF06000DCF1B0F06000BF
:10035800E0F1B1F06000E4F1B2F06000E8F1B3F070
:100368006000ECF1B4F06000F0F1B5F06000F4F179
:10037800B6F07E0E606F000E616F9A0E626FFF0E10
:10038800636F6000BCF264F06000C0F265F060006A
:10039800C4F266F06000C8F267F06000CCF268F062
:1003A8006000D0F269F06000D4F26AF06000D8F220
:1003B8006BF081EC10F082EC12F0000E296E7E0ECC
:1003C8002A6E000E2B6E000E61EC0AF03FEF01F072
:1003D800290E0001776F960E766F7F0EE82EFED7F6
:1003E800762FFCD7772FFAD70001AE51D8A4FFEFAC
:1003F80001F001EF02F055EF02F0CAB206EF02F089
:1004080008EF02F00FEF02F0CAA00DEF02F00FEFB5
:1004180002F055EF02F0BDB214EF02F017EF02F050
:10042800010E18EF02F0000EFF0A766F7647BD50F6
:100438007619FD0B7619BD6E82EC12F0CDA227EF6E
:1004480002F029EF02F034EF02F0000E296EF50EEB
:100458002A6EFF0E2B6EFF0E61EC0AF03DEF02F0E4
:10046800000E296EFA0E2A6EFF0E2B6EFF0E61EC3F
:100478000AF0180E296EAA0E2A6EFF0E2B6E000EB9
:1004880061EC0AF0BCEC0FF0150E0001776F4B0E13
:10049800766FBE0EE82EFED7762FFCD7772FFAD7C9
:1004A80000F0CAA25AEF02F05CEF02F026EF03F068
:1004B8000001B95109E1090EB85DD8A066EF02F054
:1004C80068EF02F026EF03F0AE51D8B46EEF02F0F9
:1004D80070EF02F026EF03F0FF0EB75F080EB85B6F
:1004E800000EB95B6000DCF201F06000E0F202F09F
:1004F8006000E4F203F0AEEC10F00001B751016EB9
:10050800B851026EB951036E046A056A066A076A31
:10051800086A000E096EFA0E0A6E000E0B6E000EC7
:100528000C6E000E0D6E000E0E6E000E0F6E000E9D
:10053800106E54EC0EF0600004F0AFF0600008F0AC
:10054800B0F060000CF0B1F0600010F0B2F06000A4
:1005580014F0B3F0600018F0B4F060001CF0B5F0CF
:10056800600020F0B6F06000BCF276F06000C0F2E7
:1005780077F06000C4F278F06000C8F279F06000AB
:10058800CCF27AF06000D0F27BF06000D4F27CF01C
:100598006000D8F27DF0160EDCEF02F00001D89072
:1005A8007D337C337B337A337933783377337633DF
:1005B800E82ED2EF02F06000D8F1AFF06000DCF175
:1005C800B0F06000E0F1B1F06000E4F1B2F060007A
:1005D800E8F1B3F06000ECF1B4F06000F0F1B5F0D0
:1005E8006000F4F1B6F07E0E606F000E616F9A0E37
:1005F800626FFF0E636F6000BCF264F06000C0F2CF
:1006080065F06000C4F266F06000C8F267F0600050
:10061800CCF268F06000D0F269F06000D4F26AF0C1
:100628006000D8F26BF081EC10F082EC12F0000E52
:10063800296E7E0E2A6E000E2B6E000E61EC0AF0FB
:10064800BCEC0FF0CAA02BEF03F02DEF03F003EF83
:1006580001F00001B705F70EB859030EB959D8B023
:1006680038EF03F03AEF03F003EF01F0AE51D8B4DE
:1006780040EF03F042EF03F003EF01F0FF0EB7275E
:10068800080EB823000EB9236000DCF201F0600008
:10069800E0F202F06000E4F203F0AEEC10F00001CA
:1006A800B751016EB851026EB951036E046A056AFA
:1006B800066A076A086A000E096EFA0E0A6E000ECC
:1006C8000B6E000E0C6E000E0D6E000E0E6E000E00
:1006D8000F6E000E106E54EC0EF0600004F0AFF0D8
:1006E800600008F0B0F060000CF0B1F0600010F0AD
:1006F800B2F0600014F0B3F0600018F0B4F06000DD
:100708001CF0B5F0600020F0B6F06000BCF276F0A6
:100718006000C0F277F06000C4F278F06000C8F2C0
:1007280079F06000CCF27AF06000D0F27BF06000E3
:10073800D4F27CF06000D8F27DF0160EAEEF03F034
:100748000001D8907D337C337B337A337933783327
:1007580077337633E82EA4EF03F06000D8F1AFF0DA
:100768006000DCF1B0F06000E0F1B1F06000E4F1AD
:10077800B2F06000E8F1B3F06000ECF1B4F06000B2
:10078800F0F1B5F06000F4F1B6F07E0E606F000E87
:10079800616F9A0E626FFF0E636F6000BCF264F0C7
:1007A8006000C0F265F06000C4F266F06000C8F254
:1007B80067F06000CCF268F06000D0F269F0600089
:1007C800D4F26AF06000D8F26BF081EC10F082ECA1
:1007D80012F0000E296E7E0E2A6E000E2B6E000E91
:1007E80061EC0AF001EF01F00DEF00F0286E000E49
:1007F800246E000E236E000E266E000E256E000E6F
:10080800186E000E176E600054F311F0070E1116E3
:10081800D8A411EF04F013EF04F02FEF05F06000F7
:1008280050F309F00A6A000E046E080E036E6000A9
:1008380054F301F0026A38EC0DF0600004F00BF09C
:10084800600008F00CF021EC12F0600024F015F0C4
:10085800600028F016F00001D651105C096E0A6A93
:10086800D8A00A06600054F00BF0600058F00CF0B5
:1008780021EC12F0040E09241D6E000E0A201E6ED3
:10088800000E246E000E236E18EF05F0000E266E83
:10089800000E256E07EF05F0600050F309F00A6AB4
:1008A80060008CF00BF0600090F00CF021EC12F07E
:1008B800600048F311F060004CF312F00950112663
:1008C8000A5012221D5011261E50122225501126A0
:1008D80026501222600047F0F6FF60004BF0F7FF49
:1008E800F86A0800F550176E186A000E276E600047
:1008F8009CF011F0010E126E000E136E112A88EF93
:1009080004F0D89012361336112E85EF04F01750E4
:1009180012161850131612501310D8B496EF04F08C
:1009280098EF04F0F1EF04F00001D851D8A49FEF3C
:1009380004F0A1EF04F0C9EF04F028502524016E5B
:10094800000E2620026E60008CF011F0600090F01E
:1009580012F0D89011361236D89011361236D89037
:10096800113612360F50136E146A11501326125096
:10097800142227501324036E000E1420046E010E57
:10098800056EB4EC08F0FCEF04F028502524016E45
:10099800000E2620026E60008CF011F0600090F0CE
:1009A80012F0D89011361236D89011361236D890E7
:1009B800113612360F50136E146A11501326125046
:1009C800142227501324036E000E1420046E000E08
:1009D800056EB4EC08F0FCEF04F00001D851D8A47F
:1009E800F8EF04F0FAEF04F0A1EF04F0C9EF04F017
:1009F800272A070E276403EF05F005EF05F07BEFC4
:100A080004F0254A262A0001D451116E126A1150A9
:100A1800255C12502658D8A014EF05F016EF05F003
:100A280050EF04F0234A242A600054F301F0026ACC
:100A3800000E046E080E036E38EC0DF00150235CB6
:100A480002502458D8A02BEF05F02DEF05F04AEFFF
:100A580004F014EF06F00001D651105C096E0A6A22
:100A6800D8A00A06000E046E080E036ED451D503F2
:100A78006F00CCFF01F06F00D0FF02F038EC0DF0F2
:100A8800600004F00BF0600008F00CF021EC12F0AC
:100A9800040E09241D6E000E0A201E6E1D50000152
:100AA800D225116E1E50D321126E600047F0F6FF5A
:100AB80060004BF0F7FFF86A0800F550196E1A6AE3
:100AC800000E1C6E070E1B6E000E206E000E1F6EB1
:100AD80002EF06F0000E226E000E216EEDEF05F01B
:100AE80060006CF011F0010E126E000E136E112AE8
:100AF80081EF05F0D89012361336112E7EEF05F0EF
:100B0800195012161A50131612501310D8B48FEF2A
:100B180005F091EF05F0BEEF05F00001D851D8A41B
:100B280098EF05F09AEF05F0ACEF05F028501F2478
:100B3800016E000E2020026E0F502124036E000E5D
:100B48002220046E010E056EB4EC08F0C9EF05F022
:100B580028501F24016E000E2020026E0F50212401
:100B6800036E000E2220046E000E056EB4EC08F031
:100B7800C9EF05F00001D851D8A4C5EF05F0C7EFBB
:100B880005F09AEF05F0ACEF05F01B06D8A01C069F
:100B98001CBED3EF05F0D1EF05F0EBEF05F0000E2A
:100BA8001C6E070E1B6E1D4A1E2A1D500001D22501
:100BB800116E1E50D321126E600047F0F6FF6000E0
:100BC8004BF0F7FFF86A0800F550196E1A6A214AC7
:100BD800222A0001D551116E126A1150215C22504F
:100BE800800A136E1250800A1358D8A0FEEF05F041
:100BF80000EF06F074EF05F01F4A202AD451116E59
:100C0800126A11501F5C2050800A136E1250800A1D
:100C18001358D8A012EF06F014EF06F06EEF05F0A7
:100C28001200600003F1D9FF600007F1DAFF6F00DE
:100C38007BFFF6FF6F0077FFF7FFF86A0800F550B3
:100C4800250AD8A42AEF06F02CEF06F05BEF07F090
:100C5800600003F1D9FF600007F1DAFFDE2A000E19
:100C6800DD22000E0001DC6F000EDB6FDBC0DFF061
:100C7800DCC0E0F0DD69DE69000E516E000E506EDA
:100C880098EF06F00001DF81600003F1D9FF6000F2
:100C980007F1DAFFDE2A000EDD2298EF06F00001E8
:100CA800DF8348EF06F00001DF8548EF06F000011A
:100CB800DF8748EF06F00001DF8948EF06F0000EF5
:100CC800516E010E506E98EF06F0600003F1D9FFE7
:100CD800600007F1DAFF6F007BFFF6FF6F0077FF18
:100CE800F7FFF86A0800F550446E456A4550000A57
:100CF800D8B481EF06F063EF06F04450200AD8B468
:100D08005BEF06F0030AD8B45FEF06F0080AD8B420
:100D180057EF06F0060AD8B446EF06F01D0AD8B415
:100D280053EF06F063EF06F050505110D8B49FEF20
:100D380006F0A1EF06F069EF06F00001DFA1A7EFCA
:100D480006F0A9EF06F0AAEF06F0DF93600003F1C2
:100D5800D9FF600007F1DAFF6F007BFFF6FF6F0035
:100D680077FFF7FFF86A0800F550750AD8A4BFEFB7
:100D780006F0C1EF06F01AEF07F0600003F1D9FFA3
:100D8800600007F1DAFFDE2A000EDD2260000BF1B9
:100D9800D9FF60000FF1DAFF6F007CFF44F0020E0C
:100DA800DE266F007CFF45F0000EDD22600013F1A7
:100DB800D9FF600017F1DAFF6F0078FF46F06F0087
:100DC80074FF47F0600018F148F060001CF149F02A
:100DD8004A6A4B6A4C6A4D6A4E6A4F6A6000F8F07C
:100DE8001EF06000FCF01FF0600020F120F06000B1
:100DF80024F121F0600028F122F060002CF123F0AA
:100E0800600030F124F0600034F125F0600038F122
:100E180026F060003CF127F080EC07F0600078F0E5
:100E28003EF060007CF03FF07FEF07F0600003F1D8
:100E3800D9FF600007F1DAFF6F007BFFF6FF6F0054
:100E480077FFF7FFF86A0800F550250AD8A42FEFB6
:100E580007F031EF07F04CEF07F0600003F1D9FF1E
:100E6800600007F1DAFFDE2A000EDD22000E046EB4
:100E7800250E036E6000F8F005F06000FCF006F047
:100E8800CCEC0CF0000E3F6E010E3E6E7FEF07F0CB
:100E9800600003F1D9FF600007F1DAFFDE2A000ED7
:100EA800DD22000E3F6E000E3E6E7FEF07F0600001
:100EB80003F1D9FF600007F1DAFF6F007BFFF6FF4F
:100EC8006F0077FFF7FFF86A0800F550036E046AB1
:100ED8006000F8F005F06000FCF006F0CCEC0CF0D7
:100EE800600003F1D9FF600007F1DAFFDE2A000E87
:100EF800DD2246EF07F012000001DEBF86EF07F0A3
:100F080088EF07F089EF07F0DF93DEBF96EF07F071
:100F1800DE5106E1DD05D8B094EF07F096EF07F053
:100F28009CEF07F0000E316E010E306EA2EF07F055
:100F3800600074F330F0600078F331F060006CF317
:100F480032F0600070F333F0600080F034F060003D
:100F580084F035F0600088F036F060008CF037F0EF
:100F6800600090F038F0600094F039F0600098F07C
:100F78003AF060009CF03BF0000E3D6E1F0E3C6E98
:100F8800000E01011F6F5FEF08F03C06D8A03D0678
:100F9800000E3C24D96E010E3D20DA6E6000D0F0C0
:100FA80001F06000D4F002F06000D8F003F06000B7
:100FB800DCF004F06000E0F005F06000E4F006F01A
:100FC8006000E8F007F06000ECF008F00A0E096E27
:100FD800000E0A6E000E0B6E000E0C6E000E0D6EEB
:100FE800000E0E6E000E0F6E000E106E5CEC0CF014
:100FF800600004F028F0600008F029F060000CF0B0
:101008002AF0600010F02BF0600014F02CF0600063
:1010180018F02DF060001CF02EF0600020F02FF08A
:101028002850300FDF6E3006D8A031063206D8A01F
:1010380033066000D0F001F06000D4F002F06000E8
:10104800D8F003F06000DCF004F06000E0F005F098
:101058006000E4F006F06000E8F007F06000ECF0F3
:1010680008F00A0E096E000E0A6E000E0B6E000ED6
:101078000C6E000E0D6E000E0E6E000E0F6E000E42
:10108800106EF6EC0AF0600004F034F0600008F02E
:1010980035F060000CF036F0600010F037F06000BA
:1010A80014F038F0600018F039F060001CF03AF0E5
:1010B800600020F03BF03C503D10D8B466EF08F0DB
:1010C80068EF08F099EF08F03450351036103710F3
:1010D800381039103A103B10D8A475EF08F077EFA4
:1010E80008F0C9EF07F031BE84EF08F0315006E18F
:1010F8003004D8B082EF08F084EF08F0C9EF07F0A9
:1011080033BE8FEF08F0335008E13204D8A08FEFD8
:1011180008F091EF08F099EF08F00001DFB397EFBE
:1011280008F099EF08F0C9EF07F0600078F013F0C5
:1011380060007CF014F0000E3C24156E010E3D207A
:10114800166E6000C8F017F06000CCF018F0EBECF9
:101158000BF060004CF01EF0600050F01FF0120021
:10116800D4EC12F0066E0650015C000E0258D8B09E
:10117800C0EF08F0C2EF08F094EF09F0D6EC12F0D7
:10118800066E076A0650035C07500458D8A0CFEFD4
:1011980008F0D1EF08F07BEF09F094EF09F0600058
:1011A8000CF006F0070E0616010E076E062ADFEF92
:1011B80008F0D8900736062EDDEF08F060000CF036
:1011C80008F0600010F009F0D89009320832D89081
:1011D80009320832D89009320832070ED8900836FA
:1011E8000936E82EF2EF08F0200E0A6E010E0B6E9B
:1011F80008500A2609500B2201500A24D96E0250C1
:101208000B20DA6E0750DF1294EF09F060000CF043
:1012180006F0070E0616010E076E062A16EF09F0ED
:10122800D8900736062E14EF09F00750FF0A086E0B
:1012380060000CF009F0600010F00AF0D8900A3253
:101248000932D8900A320932D8900A320932070E88
:10125800D89009360A36E82E2CEF09F0200E0B6ECE
:10126800010E0C6E09500B260A500C2201500B245B
:10127800D96E02500C20DA6E0850DF1694EF09F090
:1012880060000CF006F0070E0616010E076E062A1F
:1012980050EF09F0D8900736062E4EEF09F060009F
:1012A8000CF008F0600010F009F0D890093208320C
:1012B800D89009320832D89009320832070ED890EF
:1012C80008360936E82E63EF09F0200E0A6E010E83
:1012D8000B6E08500A2609500B2201500A24D96EB9
:1012E80002500B20DA6E0750DF1A94EF09F0055010
:1012F800066E076A0750000AD8B485EF09F094EF24
:1013080009F00650000AD8B40AEF09F0010AD8B467
:10131800D3EF08F0030AD8B444EF09F094EF09F0CA
:101328001200600004F00BF0600008F00CF00550AB
:101338000610D8A4A2EF09F0A4EF09F0A6EF09F06F
:1013480060EF0AF060002FF0D9FF600033F0DAFF99
:1013580060000FF0DFFF05500B24076E06500C20CD
:10136800086EFF0E0724D96EFF0E0820DA6E6000A3
:101378000FF0DFFF065007E1030E055CD8B0C7EF9A
:1013880009F0C9EF09F0CBEF09F060EF0AF020EEA1
:1013980001F00B50D9260C50DA2260000FF0DFFF65
:1013A80020EE02F00B50D9260C50DA2260000FF024
:1013B800DFFF05500B24076E06500C20086EFE0E4A
:1013C8000724D96EFF0E0820DA6E60000FF0DFFFE9
:1013D80005500B24076E06500C20086EFD0E0724DE
:1013E800D96EFF0E0820DA6E60000FF0DFFF06509E
:1013F80007E1070E055CD8B004EF0AF006EF0AF023
:1014080008EF0AF060EF0AF020EE03F00B50D9263F
:101418000C50DA2260000FF0DFFF05500B24076E36
:1014280006500C20086EFC0E0724D96EFF0E08200B
:10143800DA6E60000FF0DFFF065007E1090E055C69
:10144800D8B029EF0AF02BEF0AF02DEF0AF060EF81
:101458000AF060002CF007F0600030F008F0071E7A
:10146800081E074A082A030E0714096E0A6A09505B
:101478000B260A500C220950055E0A50065AFC0E2B
:101488000516FF0E061657EF0AF060002FF0D9FF79
:10149800600033F0DAFF60000FF0DFFF0506D8A028
:1014A80006060B4A0C2A05500610D8A45EEF0AF06F
:1014B80060EF0AF049EF0AF01200316E000E2F6E4D
:1014C8006000A8F001F06000ACF002F053EC10F0FE
:1014D8000150306EFE0E3118D8A475EF0AF077EF80
:1014E8000AF07DEF0AF00001D4513002F350800871
:1014F800316E3128D8A483EF0AF085EF0AF09EEF09
:101508000AF030500001D4036F00CCFF2CF06F00BC
:10151800D0FF2DF02C508008016E2D50D8A0E82A5D
:101528000008026E000E046E020E036E38EC0DF019
:101538000150316E000E2E6EECEF0AF06000ABF039
:10154800F6FF6000AFF0F7FF000EF86E0F0EF764BD
:1015580003D00800F55007D06F00DBFFE9FF6F00EC
:10156800DFFFEAFFEF500A0AD8A4BDEF0AF0BFEF89
:101578000AF0C8EF0AF00001D55129262A4A2B2A79
:10158800000E2F6EEBEF0AF06000A4F00FF0600081
:10159800ABF0F6FF6000AFF0F7FF000EF86E0F0E2D
:1015A800F76403D00800F55007D06F00DBFFE9FFB0
:1015B8006F00DFFFEAFFEF50106E0001D4512F02D9
:1015C800F3503124FAEC03F02A4A2B2A2F2A2E2A28
:1015D80030502E5CD8A0F3EF0AF0F5EF0AF0A2EF36
:1015E8000AF0120020EE11F0070EDE6AE806FDE2AE
:1015F80009500A100B100C100D100E100F101010BF
:10160800D8B409EF0BF00BEF0BF05DEF0BF0010E08
:10161800196E19EF0BF0D89009360A360B360C36CE
:101628000D360E360F361036192A10AE1EEF0BF097
:1016380020EF0BF00FEF0BF0D8901136123613365F
:10164800143615361636173618360950015C0A5006
:1016580002580B5003580C5004580D5005580E50A2
:1016680006580F50075810500858D8A03EEF0BF0F6
:1016780040EF0BF051EF0BF00950015E0A50025A8F
:101688000B50035A0C50045A0D50055A0E50065A66
:101698000F50075A1050085A1180D89010320F3244
:1016A8000E320D320C320B320A320932192E20EF6B
:1016B8000BF0600044F001F0600048F002F06000B8
:1016C8004CF003F0600050F004F0600054F005F0B6
:1016D800600058F006F060005CF007F0600060F011
:1016E80008F01200090E0E6E1E0E0D6EE40EE82EA6
:1016F800FED70D2EFCD70E2EFAD700D0AE0E9DECDD
:1017080012F0D50E9DEC12F0800E9DEC12F0A80E92
:101718009DEC12F03F0E9DEC12F0D30E9DEC12F0F2
:10172800000E9DEC12F0400E9DEC12F08D0E9DEC1B
:1017380012F0140E9DEC12F0200E9DEC12F0000E2B
:101748009DEC12F0A10E9DEC12F0C80E9DEC12F06B
:10175800DA0E9DEC12F0120E9DEC12F0810E9DEC4B
:1017680012F0CF0E9DEC12F0D90E9DEC12F0F10E96
:101778009DEC12F0DB0E9DEC12F0400E9DEC12F089
:10178800A40E9DEC12F0A60E9DEC12F02E0E9DEC10
:1017980012F0AF0E9DEC12F09E0E016EF50E026E69
:1017A800FEEC0EF0090E0E6E1E0E0D6EE40EE82E07
:1017B800FED70D2EFCD70E2EFAD700D0920E016E52
:1017C800FB0E026ED5EC10F0BCEC0FF0120000011D
:1017D800DFA1F1EF0BF0F3EF0BF001EF0CF060007D
:1017E80054F00CF0600058F00DF060004CF00EF072
:1017F800600050F00FF021EC11F018BE06EF0CF06D
:1018080008EF0CF010EF0CF060005CF01CF06000CA
:1018180060F01DF014EF0CF0000E1D6E000E1C6E33
:10182800000E1B6E000E1A6E28EF0CF0000E046EF0
:10183800200E036E60004CF005F0600050F006F0DA
:10184800CCEC0CF01A4A1B2A1C501A5C1B50800A5C
:10185800196E1D50800A1958D8A035EF0CF037EFD3
:101868000CF01AEF0CF00001DFB13DEF0CF03FEF88
:101878000CF04DEF0CF0600054F00CF0600058F0E4
:101888000DF060004CF00EF0600050F00FF021EC0D
:1018980011F0600054F001F0600058F002F053ECD1
:1018A80010F01C500124136E1D500220146E1200FB
:1018B80009500A100B100C100D100E100F101010FC
:1018C800D8B469EF0CF06BEF0CF0B3EF0CF0010E2D
:1018D800116E79EF0CF0D89009360A360B360C36B3
:1018E8000D360E360F361036112A10AE7EEF0CF07C
:1018F80080EF0CF06FEF0CF00950015C0A500258B1
:101908000B5003580C5004580D5005580E500658EB
:101918000F50075810500858D8A095EF0CF097EFC3
:101928000CF0A7EF0CF00950015E0A50025A0B5058
:10193800035A0C50045A0D50055A0E50065A0F50AF
:10194800075A1050085AD89010320F320E320D3202
:101958000C320B320A320932112E80EF0CF0600083
:1019680004F001F0600008F002F060000CF003F0F1
:10197800600010F004F0600014F005F0600018F04A
:1019880006F060001CF007F0600020F008F012007C
:1019980005500610D8B4D3EF0CF0D5EF0CF0DEEFFD
:1019A8000CF005500610D8A4DCEF0CF0DEEF0CF0BC
:1019B800E3EF0CF00350CAEC12F037EF0DF020EE15
:1019C80004F00550D9260650DA22DE50DE10D8B4CD
:1019D800F0EF0CF0F2EF0CF00DEF0DF020EE04F04C
:1019E8000550D9260650DA2210EE02F00550E126FD
:1019F8000650E222DE50E65CE650800A0B6EDE50AE
:101A0800800A0B58D8B00BEF0DF00DEF0DF037EF43
:101A18000DF020EE02F00550D9260650DA226F00AC
:101A280078FF07F06F0074FF08F0600017F0D9FF27
:101A380060001BF0DAFF6F0078FF09F06F0074FF99
:101A48000AF007500924D96E08500A20DA6E60009F
:101A58000FF0DFFF20EE02F00550D9260650DA22FB
:101A6800DE2A000EDD221200000E066E04BE41EFD3
:101A78000DF03FEF0DF047EF0DF0036C041ED8B0EA
:101A8800042A010E066E02BE4EEF0DF04CEF0DF06B
:101A980054EF0DF0016C021ED8B0022A010E061A8E
:101AA800000E086E000E076E03500410D8B45FEFE6
:101AB8000DF061EF0DF089EF0DF0010E056E69EF85
:101AC8000DF0D89003360436052A04AE6EEF0DF0FB
:101AD80070EF0DF065EF0DF0D8900736083603501B
:101AE800015C04500258D8A07CEF0DF07EEF0DF099
:101AF80083EF0DF00350015E0450025A0780D8901E
:101B080004320332052E70EF0DF00650D8B48FEF73
:101B18000DF091EF0DF095EF0DF0076C081ED8B0A1
:101B2800082A60001CF001F0600020F002F01200AA
:101B3800BA0E5D24D96EDA6A000EDA22000EDF6E64
:101B48003D01F9A7AAEF0DF0ACEF0DF0C0EF0DF0D5
:101B5800BA0E5D24D96EDA6A000EDA220001DF823D
:101B680002D8C0EF0DF00500FA6EE651FD6EE751A0
:101B7800FE6EFF6AFA5012003D01F9A3C6EF0DF0A0
:101B8800C8EF0DF0DCEF0DF0BA0E5D24D96EDA6AFD
:101B9800000EDA220001DF8402D8DCEF0DF0050028
:101BA800FA6EE451FD6EE551FE6EFF6AFA501200BE
:101BB800BA0E5D24D96EDA6A000EDA22DF50D8B484
:101BC800E8EF0DF0EAEF0DF0F9EF0DF002D8F7EFBE
:101BD8000DF00500FA6E0001E251FD6EE351FE6E54
:101BE800FF6AFA501200FBEF0DF038EC12F0120009
:101BF800000EBE6E000EBD6E000EBA6E000EBB6EFD
:101C0800000EBC6E070EC66EC30EC26EC00EC36E4B
:101C1800FC0EC46EFD0EC56EFD0E3A01706FBC0E53
:101C2800606FC00E506F070E806F400E406F000E41
:101C3800716F000E816F000E516F800E416F010EA3
:101C4800616F000E5A6F000E5B6F000E6A6F000E18
:101C58006B6F000E7A6F000E7B6F000E826F000EA6
:101C6800426F030E526F1C0E626F000E726F436953
:101C7800536963697369070E836F446954696469BA
:101C880074690F0E846F090EE26F220E096F210E20
:101C9800086F260E196F160EE56F080EE16F120019
:101CA80020EE11F0070EDE6AE806FDE201A05FEF04
:101CB8000EF061EF0EF071EF0EF0095011260A5088
:101CC80012220B5013220C5014220D5015220E50C4
:101CD80016220F50172210501822D89009360A36AB
:101CE8000B360C360D360E360F361036D8900832B5
:101CF8000732063205320432033202320132015011
:101D08000210031004100510061007100810D8A4BC
:101D180090EF0EF092EF0EF05AEF0EF0600044F0E4
:101D280001F0600048F002F060004CF003F0600041
:101D380050F004F0600054F005F0600058F006F030
:101D480060005CF007F0600060F008F012003901F4
:101D58009397380E016E1B0E026EAEEC12F039012D
:101D680093998C0E016E220E026EA7EC12F0000EF3
:101D78003D01EC6F000EED6F000EEE6F000EEF6F81
:101D8800000EF06F000EF16FB00EF26F800EF36F61
:101D9800000EF46F820EF56F060EF66F000EF76FE9
:101DA800000EF86F000EF96F000EFA6FB20E016E9A
:101DB800250E026EBCEC12F0B00E016E250E026EFE
:101DC800B5EC12F09E0E016E250E026EC3EC12F0F9
:101DD800000E0001E16F000E5F6E000E5E6E080ED1
:101DE800EC6F000E5D6E000E5C6E000E5B6E3901CE
:101DF80093871200600004F0D2F0600008F0D3F07E
:101E0800600007F0F6FF60000BF0F7FFF86A0800C3
:101E18006F00D4FFD4F0010E0124036E000E0220DF
:101E2800046E60000FF0F6FF600013F0F7FFF86A29
:101E380008006F00D4FFD5F0020E0124036E000ED7
:101E48000220046E60000FF0F6FF600013F0F7FF49
:101E5800F86A08006F00D4FFD6F0030E0124036E61
:101E6800000E0220046E60000FF0F6FF600013F011
:101E7800F7FFF86A08006F00D4FFD7F0000E0001E2
:101E8800D86F1200600050F158F0600054F159F01A
:101E9800000E0001DA6F000ED96F6AEF0FF06000D4
:101EA80048F13EF060004CF13FF0580E406E000ED5
:101EB800416E600058F142F060005CF143F015ECAF
:101EC80006F03E500001D9273F50DA23600063F145
:101ED800F6FF600067F1F7FFF86A0800F55000099F
:101EE800D8A479EF0FF07BEF0FF053EF0FF06000FD
:101EF80064F352F0600068F353F01200390193A9BB
:101F080088EF0FF08AEF0FF0A0EF0FF0A3A98FEF83
:101F18000FF091EF0FF0A0EF0FF002D89EEF0FF047
:101F28000500FA6E0001E851FD6EE951FE6EFF6A88
:101F3800FA501200BBEF0FF093A7A5EF0FF0A7EF31
:101F48000FF0BBEF0FF0A3A7ACEF0FF0AEEF0FF061
:101F5800BBEF0FF002D8BBEF0FF00500FA6E0001DF
:101F6800EA51FD6EEB51FE6EFF6AFA501200110045
:101F7800000E0A6E210E9DEC12F0000E9DEC12F080
:101F88007F0E9DEC12F0220E9DEC12F0000E9DECDF
:101F980012F0070E9DEC12F0000E0C6E000E0B6E88
:101FA800400E036E200E0B24046E010E0C20056EED
:101FB800100E066E3C0E22EC10F00F0E0B26000ED3
:101FC8000C220B4A0C2A040E0C5CD8A0EEEF0FF082
:101FD800F0EF0FF0D4EF0FF01200016E0001EC519A
:101FE800D8B4F9EF0FF0FBEF0FF0F2EF0FF0390173
:101FF80093B901EF10F003EF10F008EF10F0600054
:1020080007F0EAFD1FEF10F09399CA0E5F24D96E0E
:10201800DA6A000EDA22600007F0DFFF5F2A070E97
:102028005F6419EF10F01BEF10F01DEF10F0000EB9
:102038005F6E0001EC07390193891200076E60009A
:1020480010F008F0600014F009F0EAEC11F0075005
:1020580007243D016E6FCBEC11F006283D016C6F33
:10206800738BACEC11F003506AEC11F047EF10F0F1
:10207800600023F0D9FF600027F0DAFFDF506AEC38
:1020880011F0084A092A06060628D8A44EEF10F0CF
:1020980050EF10F03CEF10F08DEC11F012006000E2
:1020A80004F003F0600008F004F05DEF10F0014A5E
:1020B800022A600007F0F6FF60000BF0F7FF000E41
:1020C800F86E0F0EF76403D00800F55007D06F00C4
:1020D800DBFFE9FF6F00DFFFEAFFEF500009D8A43C
:1020E80078EF10F07AEF10F05BEF10F00350015C1E
:1020F800016E04500258026E1200640E00016E6FE9
:10210800000E6F6F600080F170F0600084F171F074
:10211800000E736F000E726F000E756F000E746FF5
:10212800700E526E000E536E600088F154F060001D
:102138008CF155F06E0E566E000E576E46EC0FF091
:10214800000172516025D96E73516121DA6E000E5B
:10215800DF6E12003F013E9F600007F03BFF60000A
:1021680004F004F0600008F005F060000CF006F0E0
:10217800600014F004F0600018F005F0066A0450DE
:102188003C6F60000FF03DFF3E8F030E056E990E09
:10219800046EEC0EE82EFED7042EFCD7052EFAD7D7
:1021A8001200000E066E000E056E05500124036E27
:1021B80006500220046E60000FF0F6FF600013F076
:1021C800F7FFF86A200E0524D96E010E0620DA6E94
:1021D80008006F00D7FFDFFF054A062A040E065CD9
:1021E800D8A0F9EF10F0FBEF10F0D9EF10F01200C3
:1021F80000EE20F111EE00F0EE6AE550E150FCE14E
:10220800E250FAE100EE00F1200EEE6AE806FDE188
:1022180000EEBAF0280EEE6AE806FDE15F6A5E6A33
:102228005D6A5C6A5B6A5A6A080ED56E000ED66EE5
:10223800000ED76E00010FEF00F0000E126E000EB8
:10224800116E35EF11F0600040F003F0046A600091
:1022580038F005F060003CF006F0CCEC0CF0114AC8
:10226800122A11500C24D96E12500D20DA6EDF504C
:10227800106E1050D8A443EF11F045EF11F027EF7E
:1022880011F01200080E0001EC614DEF11F04FEF54
:1022980011F067EF11F0CA0E5E24D96EDA6A000EEB
:1022A800DA22DF503D01EA6F5E2A070E5E645FEFB7
:1022B80011F061EF11F063EF11F0000E5E6E000196
:1022C800EC2B69EF11F0390193991200016E026845
:1022D8005A50D8A472EF11F074EF11F08CEF11F08E
:1022E80087EF11F03D0178AB7CEF11F07EEF11F034
:1022F80083EF11F0600007F06BFD8CEF11F0050E15
:10230800E82EFED700F0022E76EF11F0010E5A6E7D
:10231800120001685A50D8A494EF11F096EF11F00A
:10232800ABEF11F0A6EF11F03D0179A59EEF11F08A
:10233800A0EF11F0A2EF11F0ABEF11F0050EE82EAF
:10234800FED700F0012E98EF11F0010E5A6E120020
:1023580001685A50D8A4B3EF11F0B5EF11F0CAEFE5
:1023680011F0C5EF11F03D0173BBBDEF11F0BFEFE8
:1023780011F0C1EF11F0CAEF11F0050EE82EFED7EB
:1023880000F0012EB7EF11F0010E5A6E120001682D
:102398005A50D8A4D2EF11F0D4EF11F0E9EF11F0B0
:1023A800E4EF11F03D0177AFDCEF11F0DEEF11F053
:1023B800E0EF11F0E9EF11F0050EE82EFED700F07E
:1023C800012ED6EF11F0010E5A6E12003D0173AFC7
:1023D800F0EF11F0F2EF11F0FAEF11F05A50D8B413
:1023E800F8EF11F0FAEF11F008EF12F0000E5A6E44
:1023F800800E746F000E756F030E7B6F840E736F03
:10240800000E796F000E766F1200056EEAEC11F07F
:10241800055005243D016E6FCBEC11F0020E3D0115
:102428006C6F738BACEC11F003506AEC11F0045034
:102438006AEC11F08DEC11F0120009500B026F00DC
:10244800CCFF0DF06F00D0FF0EF009500C02F350D6
:102458000E260A500B02F3500E26600034F009F0E5
:10246800600038F00AF01200C20E5D24D96EDA6AF4
:10247800000EDA226F00A3F7DFFF5D2A070E5D6406
:1024880048EF12F04AEF12F04CEF12F0000E5D6EBA
:102498005B2A1200100E3F013E6F010E3F6F000EC7
:1024A8003A6F000E396F000E386F000E3D6F820EC6
:1024B8003C6FF20E3B6F3E8F1200000E3901C06F69
:1024C800000EC16F470EC26FD70EC36FE00EC46F08
:1024D800060EC56F3F0EC66F000EC76F1200D2EC16
:1024E80012F061EC12F0FCEC0DF091EC12F04EECF5
:1024F80012F0ABEC0EF0EAEC11F01200200E016EB7
:10250800010E026E000E046E000E036E040E066EBF
:10251800000E056E95EC09F01200600E3901D96FB6
:10252800000EDB6FFC0EDD6F080EDF6F000EDE6F36
:102538001200066E000E036E600018F004F03C0EE8
:1025480009EC12F01200600004F0E8F0600008F0F6
:10255800E9F01200600004F0EAF0600008F0EBF027
:102568001200600004F0E4F0600008F0E5F01200EA
:10257800600004F0E6F0600008F0E7F01200600088
:1025880004F0E2F0600008F0E3F01200026E02507E
:10259800F1EC0FF0120038EC12F01200D29A12008F
:0C25A800800E1200400E12001200120003
:10F23E00000608205F0000000000000000002F0004
:10F24E000000000700070000147F147F1400242A1A
:10F25E007F2A12002313086462003649552250009B
:10F26E00000503000000001C224100000041221C8A
:10F27E00000014083E08140008083E0808000000AC
:10F28E00A060000008080808080000606000000088
:10F29E002010080402003E5149453E0000427F40C6
:10F2AE0000004261514946002141454B310018147E
:10F2BE00127F10002745454539003C4A4949300028
:10F2CE0001710905030036494949360006494929A5
:10F2DE001E000036360000000056360000000814EE
:10F2EE0022410000141414141400004122140800CA
:10F2FE00020151090600324959513E007C12111289
:10F30E007C007F49494936003E41414122007F4100
:10F31E0041221C007F49494941007F09090901002A
:10F32E003E4149497A007F0808087F0000417F412D
:10F33E0000002040413F01007F08142241007F4021
:10F34E00404040007F020C027F007F0408107F00C7
:10F35E003E4141413E007F09090906003E415121CF
:10F36E005E007F09192946004649494931000101CD
:10F37E007F0101003F4040403F001F2040201F0002
:10F38E003F4038403F0063140814630007087008BC
:10F39E000700615149454300007F414100AA55AA2B
:10F3AE0055AA55000041417F0000040201020400ED
:10F3BE0040404040400000030500000020545454DB
:10F3CE0078007F4844443800384444442000384490
:10F3DE0044487F00385454541800087E0901020036
:10F3EE0018A4A4A47C007F080404780000447D4087
:10F3FE0000004080847D00007F1028440000004102
:10F40E007F4000007C04180478007C080404780017
:10F41E00384444443800FC242424180018242418AA
:10F42E00FC007C0804040800485454542000043F97
:10F43E00444020003C4040207C001C2040201C000A
:10F44E003C4030403C004428102844001CA0A0A0A2
:10F45E007C004464544C440000107C820000000088
:10F46E00FF00000000827C1000000006090906045F
:10F47E0006205F00000003A000C00C00F94F806B57
:10F48E00EB00988C8052A58003000001C88089C0D3
:10F49E000050850021C2000840002082000020009C
:10F4AE00188C00FA2F804BE0805A66808AA500E007
:10F4BE008F80EAAB0072A9009A8C00FAAF804AA73F
:10F4CE00000140000940002148805145008942005A
:10F4DE0042660072A6807A8780FAA500722500FA2D
:10F4EE002700FAA880FA8800722B00F88F808BE82C
:10F4FE00808BE800F88D80F82080F90F80F9CF809E
:10F50E00722700FA8400722740FA85804AA9008388
:10F51E00E800F02F00E06E00F0EF00D88D80C0EC18
:10F52E00009AAC8003E880C081808BE0004204002A
:10F53E00082080020400312380F923003124803119
:10F54E002F8031628023EA00255380F9038002E088
:10F55E000006E000F8428003E000798780390380DE
:10F56E003123007D23003127C078840029400043D9
:10F57E00E40070270060660070670048C48074570E
:10F58E008059E68023E8800360008BE200610C0066
:10F59E000810205F000000000000000000000000C6
:10F5AE0000000000000000F8000000000000003322
:10F5BE003000000000100C06100C060000000000C9
:10F5CE000000000040C07840C0784000043F0404B2
:10F5DE003F040400007088FC08300000001820FF73
:10F5EE00211E0000F008F000E018000000211C03AE
:10F5FE001E211E0000F00888700000001E2123242A
:10F60E001927211010160E00000000000000000047
:10F61E0000000000000000E01804020000000007D7
:10F62E001820400000020418E000000000402018DE
:10F63E0007000000404080F0804040000202010FB1
:10F64E0001020200000000F0000000000101011F95
:10F65E0001010100000000000000000080B07000F9
:10F66E000000000000000000000000000001010189
:10F67E000101010100000000000000000030300018
:10F68E0000000000000000008060180400601806F2
:10F69E000100000000E010080810E000000F10202C
:10F6AE0020100F00001010F8000000000020203F76
:10F6BE002020000000700808088870000030282400
:10F6CE0022213000003008888848300000182020A1
:10F6DE0020110E000000C02010F8000000070424C6
:10F6EE00243F240000F8088888080800001921200B
:10F6FE0020110E0000E0108888180000000F112065
:10F70E0020110E0000380808C83808000000003F1D
:10F71E00000000000070880808887000001C22217C
:10F72E0021221C0000E010080810E0000000312229
:10F73E0022110F00000000C0C000000000000030C9
:10F74E00300000000000008000000000000080601B
:10F75E00000000000000804020100800000102049C
:10F76E000810200040404040404040000404040483
:10F77E00040404000008102040800000002010083F
:10F78E0004020100007048080808F0000000003074
:10F79E0036010000C030C828E810E0000718272402
:10F7AE0023140B000000C038E0000000203C2302B0
:10F7BE000227382008F8888888700000203F202013
:10F7CE0020110E00C0300808080838000718202045
:10F7DE002010080008F808080810E000203F20203C
:10F7EE0020100F0008F88888E8081000203F20201D
:10F7FE002320180008F88888E8081000203F200011
:10F80E0003000000C0300808083800000718202048
:10F81E00221E020008F808000008F808203F210107
:10F82E0001213F20000808F8080800000020203FB2
:10F83E002020000000000808F8080800C080808022
:10F84E007F00000008F888C028180800203F20011B
:10F85E002638200008F8080000000000203F202075
:10F86E002020300008F8F800F8F80800203F003F8C
:10F87E00003F200008F830C00008F808203F2000A4
:10F88E0007183F00E01008080810E0000F102020B5
:10F89E0020100F0008F808080808F000203F21018A
:10F8AE0001010000E01008080810E0000F182424E1
:10F8BE0038504F0008F8888888887000203F200054
:10F8CE00030C30200070880808083800003820210A
:10F8DE0021221C00180808F8080818000000203F14
:10F8EE002000000008F808000008F808001F20207B
:10F8FE0020201F000878880000C83808000007384C
:10F90E000E010000F80800F80008F800033C07009C
:10F91E00073C0300081868808068180820302C0304
:10F92E00032C30200838C800C83808000000203FDB
:10F93E002000000010080808C838080020382621CA
:10F94E0020201800000000FE020202000000007FCE
:10F95E0040404000000C30C00000000000000001DC
:10F96E000638C00000020202FE00000000404040C7
:10F97E007F000000000004020202040000000000EC
:10F98E000000000000000000000000008080808069
:10F99E008080808000020204000000000000000051
:10F9AE0000000000000080808080000000192422EA
:10F9BE0022223F2008F8008080000000003F112026
:10F9CE0020110E000000008080800000000E11202B
:10F9DE0020201100000000808088F800000E112009
:10F9EE0020103F200000808080800000001F222217
:10F9FE0022221300008080F0888888180020203F83
:10FA0E00202000000000808080808000006B949495
:10FA1E009493600008F8008080800000203F210051
:10FA2E0000203F2000809898000000000020203F1A
:10FA3E0020200000000000809898000000C0808008
:10FA4E00807F000008F8000080808000203F2402A4
:10FA5E002D302000000808F8000000000020203F94
:10FA6E00202000008080808080808000203F200049
:10FA7E003F20003F8080008080800000203F2100DA
:10FA8E0000203F200000808080800000001F20208A
:10FA9E0020201F00808000808000000080FFA120B9
:10FAAE0020110E000000008080808000000E1120CA
:10FABE0020A0FF80808080008080800020203F2159
:10FACE00200001000000808080808000003324240C
:10FADE0024241900008080E0808000000000001FB8
:10FAEE00202000008080000000808000001F202069
:10FAFE0020103F20808080000080808000010E302A
:10FB0E000806010080800080008080800F300C038A
:10FB1E000C300F0000808000808080000020312E8D
:10FB2E000E312000808080000080808080818E7069
:10FB3E001806010000808080808080000021302C1B
:10FB4E002221300000000000807C02020000000034
:10FB5E00003F404000000000FF00000000000000D9
:10FB6E00FF0000000002027C800000000040403FC9
:10FB7E000000000000060101020204040000000063
:10FB8E0000000000FCFEFF0F030303030303030347
:10FB9E000303030303030303838383838383838327
:10FBAE000303030303030303030303030303030317
:10FBBE00FFFFFE000000000000000000000000FF3C
:10FBCE00FF000000FFFF000000001088888888F00A
:10FBDE00F0000000F8F8201018180000F9F90000E5
:10FBEE0000001088888888F0F0000000FFFF0808E9
:10FBFE0008F8F000000000FFFF000000F0F0888819
:10FC0E0088F8F000FFFFFF00000000000000000079
:10FC1E008060B8B83CFEFFFFFFFF3FBF3FFFFFFF16
:10FC2E00FFFF3EBE3C78F0C0000000000000000068
:10FC3E00FFFFFF0000000000000000000000000FAA
:10FC4E000F08080007030000000007070808000F50
:10FC5E000F0000000F0F0000000000000F0F00004B
:10FC6E00000007070808000F0F0000000F0F08081C
:10FC7E00080707000000000F0F0000000307080828
:10FC8E0008080400FFFFFF00000000000000000055
:10FC9E0023F8FFFFFEF0CFDFC7F0FFFFFFF0E7DF37
:10FCAE00CFF0FEFFFFF8E75F00000000000000004D
:10FCBE00FFFFFF000000000000000000000000C079
:10FCCE00E0301010002000000000F0F000000000F6
:10FCDE000080808080000000000000808080000096
:10FCEE00000000F0F0000000008080000000000026
:10FCFE0000000000000000000000000000000000F6
:10FD0E0000000000FFFFFF000000000000000000E8
:10FD1E00000003070F0F1F1F3F3F3F3F3F3F3F3F77
:10FD2E001F1F0F0F0703010000000000000000005E
:10FD3E00FFFFFF0000000000000000000000003F79
:10FD4E007F808080804000000000FFFF0000003FA9
:10FD5E007F8080807F7F000000007F7F808000009A
:10FD6E00000000FFFF1C14224180800000000000F4
:10FD7E000000000000000000000000000000000075
:10FD8E0000000000FFFFFF00000000000000000068
:10FD9E000000000000000000000000000000004015
:10FDAE00F0F0F0F0E0000000F0F0B0D0E000000065
:10FDBE00FFFFFF0000000000000000000000000038
:10FDCE000000000000000000000000000000000025
:10FDDE000000000000000000000000000000000015
:10FDEE000000000000000000000000000000000005
:10FDFE0000000000000000000000000000000000F5
:10FE0E0000000000071F3F3C7070707070707070C3
:10FE1E0070707070707070707070707070707070D4
:10FE2E0071717171707070707071717170707070BD
:10FE3E003F3F1F0000000000000000000000000017
:10FE4E0000000000000000000000000000000000A4
:10FE5E000000000000000000000000000000000094
:10FE6E000000000000000000000000000000000084
:10FE7E000000000000000000000000000000000074
:10FE8E000000000000000000000000000000000064
:10FE9E003C64C08400000000F80C04040CF8000060
:10FEAE0000000000F00000000000101010E0000044
:10FEBE000000F0000000F0F000000000101010E054
:10FECE00C000000000000000000000000000000064
:10FEDE00000000000000040080443C18000000F800
:10FEEE008C04043CF800000000080CFC000000002C
:10FEFE000000FC840084FCF80000000000000000FC
:10FF0E0000000000000000000000000000000000E3
:10FF1E000008090702000000070C08080C07000083
:10FF2E00102020301F00000002070908000F0000FB
:10FF3E0000000F0808000701000000070908000F65
:10FF4E000F00000000000000000000000000000094
:10FF5E000000000000000E0B080808080000000753
:10FF6E000F08080C070000000000000F0000000042
:10FF7E000000000808040701000000000000000057
:10FF8E000000000000FA00000000000053706565DC
:10FF9E00643A20253075206B487A0A0A50726573D0
:10FFAE0073202B20616E64202D0A666F72206D61A6
:10FFBE006E75616C206D6F64650050726573732091
:10FFCE00616E7920627574746F6E0A746F20546F4F
:10FFDE0067676C6520436C6F636B004D616E756176
:10FFEE006C204D6F64650048494748004C4F5700E0
:01FFFE000002
:020000040020DA
:10000000FF0FFF0FFF0FFF0FFF0FFF0FFF0FFF0F80
:020000040030CA
:0A0000008CFFF7FF9FFFFFFFFFFFDB
:00000001FF
