:020000040000FA
:040000000DEF00F010
:0400080031EF0EF0D6
:10001800FF00B0EF0FF044EC11F083EC0AF0000E93
:100028000001AE6FFA0EAF6F000EB06F000EB16F29
:10003800000EB26F000EB36F000EB46F000EB56FF6
:10004800010EB66F520E0001776F2B0E766F000E01
:10005800E82EFED7762FFCD7772FFAD700F03F018E
:100068003D510001BF6FC06BC16BBFC077F0C0C00E
:1000780078F0766B76C0BFF077C0C0F078C0C1F07A
:100088003F013C510001BF11766F000EC011776F20
:10009800000EC111786F77C078F076C077F0766B74
:1000A80076C0BFF077C0C0F078C0C1F03F013B51C7
:1000B8000001BF11BF6F000EC011C06F000EC1114B
:1000C800C16FBF51016EC051026EC151036E046A07
:1000D800056A066A076A086A000E096EFA0E0A6E51
:1000E800000E0B6E000E0C6E000E0D6E000E0E6EE6
:1000F800000E0F6E000E106E9CEC0DF001C0B7F0F4
:1001080002C0B8F003C0B9F004C0BAF005C0BBF033
:1001180006C0BCF007C0BDF008C0BEF0B7C076F09E
:10012800B8C077F0B9C078F0BAC079F0BBC07AF03F
:10013800BCC07BF0BDC07CF0BEC07DF0160EAFEF3A
:1001480000F00001D8907D337C337B337A337933E8
:10015800783377337633E82EA5EF00F076C0B7F022
:1001680077C0B8F078C0B9F079C0BAF07AC0BBF0FF
:100178007BC0BCF07CC0BDF07DC0BEF07E0E606F61
:10018800000E616F7A0E626FFF0E636FB7C064F086
:10019800B8C065F0B9C066F0BAC067F0BBC068F017
:1001A800BCC069F0BDC06AF0BEC06BF060EC0FF077
:1001B80053EC11F0000E296E7E0E2A6E000E2B6E87
:1001C800000E79EC09F06BEC0EF0CAA0EEEF00F02F
:1001D800F0EF00F0BEEF01F0CAA2F5EF00F0F7EF84
:1001E80000F0BEEF01F00001B651D8B4FEEF00F008
:1001F80001EF01F0010E02EF01F0000EB66F3A01B7
:100208001951D8B40AEF01F00CEF01F029EF01F011
:100218003F013E9F000E3A01196F53EC11F0000E9A
:10022800296EEA0E2A6EFF0E2B6EFF0E79EC09F08E
:10023800180E296EC90E2A6EFF0E2B6E000E79EC71
:1002480009F06BEC0EF0B2EF01F0260E196F3F01CA
:100258003E8F0001BF51016EC051026EC151036E45
:10026800046A056A066A076A086AAEC009F0AFC080
:100278000AF0B0C00BF0B1C00CF0B2C00DF0B3C0C2
:100288000EF0B4C00FF0B5C010F09CEC0DF001C03A
:10029800B7F002C0B8F003C0B9F004C0BAF005C0A6
:1002A800BBF006C0BCF007C0BDF008C0BEF0B7C0C8
:1002B80076F0B8C077F0B9C078F0BAC079F0BBC0B2
:1002C8007AF0BCC07BF0BDC07CF0BEC07DF0160EDD
:1002D80078EF01F00001D8907D337C337B337A339B
:1002E8007933783377337633E82E6EEF01F076C0C2
:1002F800B7F077C0B8F078C0B9F079C0BAF07AC072
:10030800BBF07BC0BCF07CC0BDF07DC0BEF07E0EF3
:10031800606F000E616F7A0E626FFF0E636FB7C079
:1003280064F0B8C065F0B9C066F0BAC067F0BBC089
:1003380068F0BCC069F0BDC06AF0BEC06BF060EC8C
:100348000FF053EC11F0000E296E7E0E2A6E000E8F
:100358002B6E000E79EC09F025EF01F0290E000153
:10036800776F960E766F7F0EE82EFED7762FFCD726
:10037800772FFAD70001B651D8A4C5EF01F0C7EF1F
:1003880001F01BEF02F0CAB2CCEF01F0CEEF01F0A2
:10039800D5EF01F0CAA0D3EF01F0D5EF01F01BEFC4
:1003A80002F0BDB2DAEF01F0DDEF01F0010EDEEF91
:1003B80001F0000EFF0A766F7647BD507619FD0BE7
:1003C8007619BD6E53EC11F0CDA2EDEF01F0EFEF11
:1003D80001F0FAEF01F0000E296EF60E2A6EFF0EFC
:1003E8002B6EFF0E79EC09F003EF02F0000E296E78
:1003F800FB0E2A6EFF0E2B6EFF0E79EC09F0180E1D
:10040800296EA80E2A6EFF0E2B6E000E79EC09F0ED
:100418006BEC0EF0150E0001776F4B0E766FBE0E6B
:10042800E82EFED7762FFCD7772FFAD700F0CAA28E
:1004380020EF02F022EF02F0C9EF02F00001C151F3
:1004480009E1090EC05DD8A02CEF02F02EEF02F0F2
:10045800C9EF02F0B651D8B434EF02F036EF02F02B
:10046800C9EF02F0FF0EBF5F080EC05B000EC15B54
:10047800BFC001F0C0C002F0C1C003F03EEC10F0F4
:100488000001BF51016EC051026EC151036E046A72
:10049800056A066A076A086AAEC009F0AFC00AF0C2
:1004A800B0C00BF0B1C00CF0B2C00DF0B3C00EF08C
:1004B800B4C00FF0B5C010F09CEC0DF001C0B7F05F
:1004C80002C0B8F003C0B9F004C0BAF005C0BBF070
:1004D80006C0BCF007C0BDF008C0BEF0B7C076F0DB
:1004E800B8C077F0B9C078F0BAC079F0BBC07AF07C
:1004F800BCC07BF0BDC07CF0BEC07DF0160E8FEF97
:1005080002F00001D8907D337C337B337A33793322
:10051800783377337633E82E85EF02F076C0B7F07C
:1005280077C0B8F078C0B9F079C0BAF07AC0BBF03B
:100538007BC0BCF07CC0BDF07DC0BEF07E0E606F9D
:10054800000E616F7A0E626FFF0E636FB7C064F0C2
:10055800B8C065F0B9C066F0BAC067F0BBC068F053
:10056800BCC069F0BDC06AF0BEC06BF060EC0FF0B3
:1005780053EC11F0000E296E7E0E2A6E000E2B6EC3
:10058800000E79EC09F06BEC0EF0CAA0CEEF02F089
:10059800D0EF02F0E9EF00F00001BF05F70EC059F7
:1005A800030EC159D8B0DBEF02F0DDEF02F0E9EF3E
:1005B80000F0B651D8B4E3EF02F0E5EF02F0E9EF4E
:1005C80000F0FF0EBF27080EC023000EC123BFC0D6
:1005D80001F0C0C002F0C1C003F03EEC10F0000111
:1005E800BF51016EC051026EC151036E046A056AA3
:1005F800066A076A086AAEC009F0AFC00AF0B0C060
:100608000BF0B1C00CF0B2C00DF0B3C00EF0B4C026
:100618000FF0B5C010F09CEC0DF001C0B7F002C0AF
:10062800B8F003C0B9F004C0BAF005C0BBF006C00A
:10063800BCF007C0BDF008C0BEF0B7C076F0B8C0C7
:1006480077F0B9C078F0BAC079F0BBC07AF0BCC016
:100658007BF0BDC07CF0BEC07DF0160E3EEF03F00F
:100668000001D8907D337C337B337A337933783308
:1006780077337633E82E34EF03F076C0B7F077C0DF
:10068800B8F078C0B9F079C0BAF07AC0BBF07BC0D6
:10069800BCF07CC0BDF07DC0BEF07E0E606F000E69
:1006A800616F7A0E626FFF0E636FB7C064F0B8C0F7
:1006B80065F0B9C066F0BAC067F0BBC068F0BCC0EE
:1006C80069F0BDC06AF0BEC06BF060EC0FF053EC8F
:1006D80011F0000E296E7E0E2A6E000E2B6E000E93
:1006E80079EC09F0E7EF00F00DEF00F0286E000E4E
:1006F800246E000E236E000E266E000E256E000E70
:10070800186E000E176EDDC011F0070E1116D8A472
:1007180090EF03F092EF03F09BEF04F0DCC009F0D8
:100728000A6A000E046E080E036EDDC001F0026A4C
:100738002FEC0CF001C00BF002C00CF00AEC11F029
:1007480009C015F00AC016F00001DE51105C096EF0
:100758000A6AD8A00A0615C00BF016C00CF00AECFD
:1007680011F0040E09241D6E000E0A201E6E000EE4
:10077800246E000E236E85EF04F0000E266E000E28
:10078800256E74EF04F0DCC009F00A6A23C00BF090
:1007980024C00CF00AEC11F0DAC011F0DBC012F042
:1007A800095011260A5012221D5011261E501222DD
:1007B8002550112626501222600047F0F6FF6000EF
:1007C8004BF0F7FFF86A0800F550176E186A000E2C
:1007D800276E27C011F0010E126E000E136E112A3B
:1007E800F9EF03F0D89012361336112EF6EF03F016
:1007F800175012161850131612501310D8B407EFCA
:1008080004F009EF04F05EEF04F00001E051D8A411
:1008180010EF04F012EF04F038EF04F0285025240C
:10082800016E000E2620026E23C011F024C012F0C3
:10083800D89011361236D89011361236D890113613
:1008480012360F50136E146A1150132612501422C8
:1008580027501324036E000E1420046E010E056E3B
:10086800D9EC07F069EF04F028502524016E000E3A
:100878002620026E23C011F024C012F0D890113641
:100888001236D89011361236D890113612360F50CB
:10089800136E146A11501326125014222750132471
:1008A800036E000E1420046E000E056ED9EC07F0DE
:1008B80069EF04F00001E051D8A465EF04F067EF98
:1008C80004F012EF04F038EF04F0272A070E27642B
:1008D80070EF04F072EF04F0EDEF03F0254A262ADA
:1008E8000001DC51116E126A1150255C1250265815
:1008F800D8A081EF04F083EF04F0C7EF03F0234A98
:10090800242ADDC001F0026A000E046E080E036E90
:100918002FEC0CF00150235C02502458D8A097EF1C
:1009280004F099EF04F0C1EF03F07DEF05F000014A
:10093800DE51105C096E0A6AD8A00A06000E046E21
:10094800080E036EDC51DD036F00CCFF01F06F0071
:10095800D0FF02F02FEC0CF001C00BF002C00CF03D
:100968000AEC11F0040E09241D6E000E0A201E6EFA
:100978001D500001DA25116E1E50DB21126E600039
:1009880047F0F6FF60004BF0F7FFF86A0800F550F3
:10099800196E1A6A000E1C6E070E1B6E000E206E72
:1009A800000E1F6E6BEF05F0000E226E000E216E1A
:1009B80056EF05F01BC011F0010E126E000E136EFB
:1009C800112AEAEF04F0D89012361336112EE7EF09
:1009D80004F0195012161A50131612501310D8B4E6
:1009E800F8EF04F0FAEF04F027EF05F00001E0510A
:1009F800D8A401EF05F003EF05F015EF05F0285036
:100A08001F24016E000E2020026E0F502124036E59
:100A1800000E2220046E010E056ED9EC07F032EFAD
:100A280005F028501F24016E000E2020026E0F5082
:100A38002124036E000E2220046E000E056ED9ECF0
:100A480007F032EF05F00001E051D8A42EEF05F0D1
:100A580030EF05F003EF05F015EF05F01B06D8A001
:100A68001C061CBE3CEF05F03AEF05F054EF05F00C
:100A7800000E1C6E070E1B6E1D4A1E2A1D5000011B
:100A8800DA25116E1E50DB21126E600047F0F6FF6A
:100A980060004BF0F7FFF86A0800F550196E1A6A03
:100AA800214A222A0001DD51116E126A1150215C7F
:100AB8002250800A136E1250800A1358D8A067EF8C
:100AC80005F069EF05F0DEEF04F01F4A202ADC513B
:100AD800116E126A11501F5C2050800A136E12505A
:100AE800800A1358D8A07BEF05F07DEF05F0D8EF0A
:100AF80004F01200600003F1D9FF600007F1DAFF8B
:100B08006F007BFFF6FF6F0077FFF7FFF86A0800BA
:100B1800F550250AD8A493EF05F095EF05F0B4EF4A
:100B280006F0600003F1D9FF600007F1DAFFDE2A62
:100B3800000EDD22000E0001E46F000EE36FE3C03B
:100B4800E7F0E4C0E8F0E569E669000E516E000ED2
:100B5800506E01EF06F00001E781600003F1D9FF54
:100B6800600007F1DAFFDE2A000EDD2201EF06F051
:100B78000001E783B1EF05F00001E785B1EF05F06B
:100B88000001E787B1EF05F00001E789B1EF05F053
:100B9800000E516E010E506E01EF06F0600003F179
:100BA800D9FF600007F1DAFF6F007BFFF6FF6F00E7
:100BB80077FFF7FFF86A0800F550446E456A45501C
:100BC800000AD8B4EAEF05F0CCEF05F04450200A4B
:100BD800D8B4C4EF05F0030AD8B4C8EF05F0080A82
:100BE800D8B4C0EF05F0060AD8B4AFEF05F01D0A77
:100BF800D8B4BCEF05F0CCEF05F050505110D8B484
:100C080008EF06F00AEF06F0D2EF05F00001E7A1C1
:100C180010EF06F012EF06F013EF06F0E79360000E
:100C280003F1D9FF600007F1DAFF6F007BFFF6FFE1
:100C38006F0077FFF7FFF86A0800F550750AD8A427
:100C480028EF06F02AEF06F075EF06F0600003F1D2
:100C5800D9FF600007F1DAFFDE2A000EDD2260000E
:100C68000BF1D9FF60000FF1DAFF6F007CFF44F051
:100C7800020EDE266F007CFF45F0000EDD226000CC
:100C880013F1D9FF600017F1DAFF6F0078FF46F023
:100C98006F0074FF47F046C048F047C049F04A6A01
:100CA8004B6A4C6A4D6A4E6A4F6A3EC01EF03FC09E
:100CB8001FF048C020F049C021F04AC022F04BC0C4
:100CC80023F04CC024F04DC025F04EC026F04FC094
:100CD80027F0D7EC06F01EC03EF01FC03FF0D6EF5D
:100CE80006F0600003F1D9FF600007F1DAFF6F003A
:100CF8007BFFF6FF6F0077FFF7FFF86A0800F550F3
:100D0800250AD8A48AEF06F08CEF06F0A5EF06F0C6
:100D1800600003F1D9FF600007F1DAFFDE2A000E58
:100D2800DD22000E046E250E036E3EC005F03FC0A6
:100D380006F0F8EC0AF0000E3F6E010E3E6ED6EF9C
:100D480006F0600003F1D9FF600007F1DAFFDE2A40
:100D5800000EDD22000E3F6E000E3E6ED6EF06F04E
:100D6800600003F1D9FF600007F1DAFF6F007BFF35
:100D7800F6FF6F0077FFF7FFF86A0800F550036E7B
:100D8800046A3EC005F03FC006F0F8EC0AF06000C7
:100D980003F1D9FF600007F1DAFFDE2A000EDD2239
:100DA8009FEF06F012000001E6BFDDEF06F0DFEF6F
:100DB80006F0E0EF06F0E793E6BFEDEF06F0E65148
:100DC80006E1E505D8B0EBEF06F0EDEF06F0F3EF3E
:100DD80006F0000E316E010E306EF7EF06F0E5C03A
:100DE80030F0E6C031F0E3C032F0E4C033F020C0A8
:100DF80034F021C035F022C036F023C037F024C0CB
:100E080038F025C039F026C03AF027C03BF0000E74
:100E18003D6E1F0E3C6E000E01011F6F8AEF07F03A
:100E28003C06D8A03D06000E3C24D96E010E3D209C
:100E3800DA6E34C001F035C002F036C003F037C0B6
:100E480004F038C005F039C006F03AC007F03BC0DE
:100E580008F00A0E096E000E0A6E000E0B6E000EE8
:100E68000C6E000E0D6E000E0E6E000E0F6E000E54
:100E7800106E64EC0BF001C028F002C029F003C02A
:100E88002AF004C02BF005C02CF006C02DF007C0D6
:100E98002EF008C02FF02850300FDF6E3006D8A093
:100EA80031063206D8A0330634C001F035C002F04E
:100EB80036C003F037C004F038C005F039C006F07A
:100EC8003AC007F03BC008F00A0E096E000E0A6E21
:100ED800000E0B6E000E0C6E000E0D6E000E0E6EE8
:100EE800000E0F6E000E106E0BEC0AF001C034F00D
:100EF80002C035F003C036F004C037F005C038F042
:100F080006C039F007C03AF008C03BF03C503D102D
:100F1800D8B491EF07F093EF07F0C4EF07F034501F
:100F2800351036103710381039103A103B10D8A445
:100F3800A0EF07F0A2EF07F014EF07F031BEAFEF14
:100F480007F0315006E13004D8B0ADEF07F0AFEF4D
:100F580007F014EF07F033BEBAEF07F0335008E19B
:100F68003204D8A0BAEF07F0BCEF07F0C4EF07F0DF
:100F78000001E7B3C2EF07F0C4EF07F014EF07F082
:100F88001EC013F01FC014F0000E3C24156E010E95
:100F98003D20166E32C017F033C018F0CCEC0BF0C1
:100FA80013C01EF014C01FF012009AEC11F0066E68
:100FB8000650015C000E0258D8B0E5EF07F0E7EFE5
:100FC80007F0B0EF08F09CEC11F0066E076A0650C7
:100FD800035C07500458D8A0F4EF07F0F6EF07F0C9
:100FE80097EF08F0B0EF08F003C006F0070E0616FA
:100FF800010E076E062A03EF08F0D8900736062E72
:1010080001EF08F003C008F004C009F0D8900932D5
:101018000832D89009320832D89009320832070EBF
:10102800D89008360936E82E14EF08F0200E0A6E1C
:10103800010E0B6E08500A2609500B2201500A2493
:10104800D96E02500B20DA6E0750DF12B0EF08F0AD
:1010580003C006F0070E0616010E076E062A37EFC4
:1010680008F0D8900736062E35EF08F00750FF0A2B
:10107800086E03C009F004C00AF0D8900A32093299
:10108800D8900A320932D8900A320932070ED8901D
:1010980009360A36E82E4BEF08F0200E0B6E010ECB
:1010A8000C6E09500B260A500C2201500B24D96EE5
:1010B80002500C20DA6E0850DF16B0EF08F003C0BB
:1010C80006F0070E0616010E076E062A6EEF08F0E8
:1010D800D8900736062E6CEF08F003C008F004C05D
:1010E80009F0D89009320832D89009320832D890DD
:1010F80009320832070ED89008360936E82E7FEFF5
:1011080008F0200E0A6E010E0B6E08500A260950D0
:101118000B2201500A24D96E02500B20DA6E0750B8
:10112800DF1AB0EF08F00550066E076A0750000A8C
:10113800D8B4A1EF08F0B0EF08F00650000AD8B410
:101148002CEF08F0010AD8B4F8EF07F0030AD8B476
:1011580063EF08F0B0EF08F0120001C00BF002C016
:101168000CF005500610D8A4BCEF08F0BEEF08F04C
:10117800C0EF08F078EF09F060002FF0D9FF6000A9
:1011880033F0DAFF60000FF0DFFF05500B24076E25
:1011980006500C20086EFF0E0724D96EFF0E08209B
:1011A800DA6E60000FF0DFFF065007E1030E055C02
:1011B800D8B0E1EF08F0E3EF08F0E5EF08F078EFDA
:1011C80009F020EE01F00B50D9260C50DA2260000D
:1011D8000FF0DFFF20EE02F00B50D9260C50DA2278
:1011E80060000FF0DFFF05500B24076E06500C203F
:1011F800086EFE0E0724D96EFF0E0820DA6E600016
:101208000FF0DFFF05500B24076E06500C20086E08
:10121800FD0E0724D96EFF0E0820DA6E60000FF06D
:10122800DFFF065007E1070E055CD8B01EEF09F096
:1012380020EF09F022EF09F078EF09F020EE03F033
:101248000B50D9260C50DA2260000FF0DFFF055052
:101258000B24076E06500C20086EFC0E0724D96E6E
:10126800FF0E0820DA6E60000FF0DFFF065007E17E
:10127800090E055CD8B043EF09F045EF09F047EFD8
:1012880009F078EF09F00BC007F00CC008F0071E52
:10129800081E074A082A030E0714096E0A6A09502D
:1012A8000B260A500C220950055E0A50065AFC0EFD
:1012B8000516FF0E06166FEF09F060002FF0D9FF34
:1012C800600033F0DAFF60000FF0DFFF0506D8A0FA
:1012D80006060B4A0C2A05500610D8A476EF09F02A
:1012E80078EF09F061EF09F01200316E000E2F6EF1
:1012F8002AC001F02BC002F034EC0FF00150306E20
:10130800FE0E3118D8A48BEF09F08DEF09F093EF9A
:1013180009F00001DC513002F3508008316E3128A9
:10132800D8A499EF09F09BEF09F0B4EF09F0305019
:101338000001DC036F00CCFF2CF06F00D0FF2DF014
:101348002C508008016E2D50D8A0E82A0008026EA3
:10135800000E046E020E036E2FEC0CF00150316E7D
:10136800000E2E6E01EF0AF06000ABF0F6FF600091
:10137800AFF0F7FF000EF86E0F0EF76403D0080009
:10138800F55007D06F00DBFFE9FF6F00DFFFEAFFD2
:10139800EF500A0AD8A4D3EF09F0D5EF09F0DEEF31
:1013A80009F00001DD5129262A4A2B2A000E2F6E4A
:1013B80000EF0AF029C00FF06000ABF0F6FF600004
:1013C800AFF0F7FF000EF86E0F0EF76403D00800B9
:1013D800F55007D06F00DBFFE9FF6F00DFFFEAFF82
:1013E800EF50106E0001DC512F02F35031247AECDB
:1013F80003F02A4A2B2A2F2A2E2A30502E5CD8A0F6
:1014080008EF0AF00AEF0AF0B8EF09F0120020EE30
:1014180011F0070EDE6AE806FDE209500A100B100B
:101428000C100D100E100F101010D8B41EEF0AF08B
:1014380020EF0AF072EF0AF0010E196E2EEF0AF093
:10144800D89009360A360B360C360D360E360F365E
:101458001036192A10AE33EF0AF035EF0AF024EFF0
:101468000AF0D89011361236133614361536163659
:10147800173618360950015C0A5002580B500358A9
:101488000C5004580D5005580E5006580F50075868
:1014980010500858D8A053EF0AF055EF0AF066EF3D
:1014A8000AF00950015E0A50025A0B50035A0C50B8
:1014B800045A0D50055A0E50065A0F50075A10502C
:1014C800085A1180D89010320F320E320D320C3279
:1014D8000B320A320932192E35EF0AF011C001F029
:1014E80012C002F013C003F014C004F015C005F0D8
:1014F80016C006F017C007F018C008F01200090E51
:101508000E6E1E0E0D6EE40EE82EFED70D2EFCD7C5
:101518000E2EFAD700D0AE0E6EEC11F0D50E6EEC92
:1015280011F0800E6EEC11F0A80E6EEC11F03F0E6B
:101538006EEC11F0D30E6EEC11F0000E6EEC11F0A3
:10154800400E6EEC11F08D0E6EEC11F0140E6EEC78
:1015580011F0200E6EEC11F0000E6EEC11F0A10EE1
:101568006EEC11F0C80E6EEC11F0DA0E6EEC11F0A4
:10157800120E6EEC11F0810E6EEC11F0CF0E6EECC7
:1015880011F0D90E6EEC11F0F10E6EEC11F0DB0ECD
:101598006EEC11F0400E6EEC11F0A40E6EEC11F032
:1015A800A60E6EEC11F02E0E6EEC11F0AF0E6EEC76
:1015B80011F0860E016EF50E026EEBEC0DF0090EC1
:1015C8000E6E1E0E0D6EE40EE82EFED70D2EFCD705
:1015D8000E2EFAD700D07A0E016EFB0E026E89EC41
:1015E8000FF06BEC0EF0120005500610D8B4FFEFA8
:1015F8000AF001EF0BF00AEF0BF005500610D8A423
:1016080008EF0BF00AEF0BF00FEF0BF0035077EC3D
:1016180011F063EF0BF020EE04F00550D9260650C8
:10162800DA22DE50DE10D8B41CEF0BF01EEF0BF000
:1016380039EF0BF020EE04F00550D9260650DA22D7
:1016480010EE02F00550E1260650E222DE50E65C7C
:10165800E650800A0B6EDE50800A0B58D8B037EF80
:101668000BF039EF0BF063EF0BF020EE02F00550B2
:10167800D9260650DA226F0078FF07F06F0074FF52
:1016880008F0600017F0D9FF60001BF0DAFF6F0068
:1016980078FF09F06F0074FF0AF007500924D96E2B
:1016A80008500A20DA6E60000FF0DFFF20EE02F02B
:1016B8000550D9260650DA22DE2A000EDD22120055
:1016C80009500A100B100C100D100E100F101010EE
:1016D800D8B471EF0BF073EF0BF0BBEF0BF0010E0A
:1016E800116E81EF0BF0D89009360A360B360C369E
:1016F8000D360E360F361036112A10AE86EF0BF067
:1017080088EF0BF077EF0BF00950015C0A50025894
:101718000B5003580C5004580D5005580E500658DD
:101728000F50075810500858D8A09DEF0BF09FEFA6
:101738000BF0AFEF0BF00950015E0A50025A0B5044
:10174800035A0C50045A0D50055A0E50065A0F50A1
:10175800075A1050085AD89010320F320E320D32F4
:101768000C320B320A320932112E88EF0BF001C00D
:1017780001F002C002F003C003F004C004F005C089
:1017880005F006C006F007C007F008C008F0120010
:101798000001E7A1D2EF0BF0D4EF0BF0DEEF0BF076
:1017A80015C00CF016C00DF013C00EF014C00FF0E9
:1017B8001CEC10F018BEE3EF0BF0E5EF0BF0EBEFCD
:1017C8000BF017C01CF018C01DF0EFEF0BF0000E67
:1017D8001D6E000E1C6E000E1B6E000E1A6E01EFC1
:1017E8000CF0000E046E200E036E13C005F014C03A
:1017F80006F0F8EC0AF01A4A1B2A1C501A5C1B5017
:10180800800A196E1D50800A1958D8A00EEF0CF0E6
:1018180010EF0CF0F5EF0BF00001E7B116EF0CF04C
:1018280018EF0CF022EF0CF015C00CF016C00DF0FC
:1018380013C00EF014C00FF01CEC10F015C001F02E
:1018480016C002F034EC0FF01C500124136E1D502A
:101858000220146E1200000E066E04BE38EF0CF063
:1018680036EF0CF03EEF0CF0036C041ED8B0042ADF
:10187800010E066E02BE45EF0CF043EF0CF04BEF85
:101888000CF0016C021ED8B0022A010E061A000ED6
:10189800086E000E076E03500410D8B456EF0CF013
:1018A80058EF0CF080EF0CF0010E056E60EF0CF0B5
:1018B800D89003360436052A04AE65EF0CF067EFBE
:1018C8000CF05CEF0CF0D890073608360350015C3A
:1018D80004500258D8A073EF0CF075EF0CF07AEFB3
:1018E8000CF00350015E0450025A0780D89004326D
:1018F8000332052E67EF0CF00650D8B486EF0CF0D3
:1019080088EF0CF08CEF0CF0076C081ED8B0082A92
:1019180007C001F008C002F01200C20E5D24D96EA3
:10192800DA6A000EDA22000EDF6E3D01F9A79FEF9A
:101938000CF0A1EF0CF0B5EF0CF0C20E5D24D96EDF
:10194800DA6A000EDA220001DF8202D8B5EF0CF065
:101958000500FA6EEE51FD6EEF51FE6EFF6AFA5009
:1019680012003D01F9A3BBEF0CF0BDEF0CF0D1EF75
:101978000CF0C20E5D24D96EDA6A000EDA2200017C
:10198800DF8402D8D1EF0CF00500FA6EEC51FD6E41
:10199800ED51FE6EFF6AFA501200C20E5D24D96E38
:1019A800DA6A000EDA22DF50D8B4DDEF0CF0DFEF90
:1019B8000CF0EEEF0CF002D8ECEF0CF00500FA6E2C
:1019C8000001EA51FD6EEB51FE6EFF6AFA501200FB
:1019D800F0EF0CF0F4EC10F01200000EBE6E000EEA
:1019E800BD6E000EBA6E000EBB6E000EBC6E070E0A
:1019F800C66EC30EC26EC00EC36EFC0EC46EFD0E64
:101A0800C56EFD0E3A01706FBC0E606FC00E506F50
:101A1800070E806F400E406F000E716F000E816FD1
:101A2800000E516F800E416F010E616F000E5A6FEC
:101A3800000E5B6F000E6A6F000E6B6F000E7A6F00
:101A4800000E7B6F000E826F000E426F030E526F06
:101A58001C0E626F000E726F436953696369736984
:101A6800070E836F44695469646974690F0E846F43
:101A7800090EE26F220E096F210E086F260E196FEC
:101A8800160EE56F080EE16F120039019397220ECA
:101A9800016E190E026E81EC11F039019399AA0EAC
:101AA800016E1F0E026E7CEC11F0000E3D01EC6F12
:101AB800000EED6F000EEE6F000EEF6F000EF06F70
:101AC800000EF16FB00EF26F800EF36F000EF46F20
:101AD800820EF56F060EF66F000EF76F000EF86FA8
:101AE800000EF96F000EFA6F3E0E016E230E026EA5
:101AF8008BEC11F03C0E016E230E026E86EC11F099
:101B08002A0E016E230E026E90EC11F0000E0001F9
:101B1800E96F000E5F6E000E5E6E080EF46F000E29
:101B28005D6E000E5C6E000E5B6E390193871200CD
:101B380020EE11F0070EDE6AE806FDE201A0A7EF2D
:101B48000DF0A9EF0DF0B9EF0DF0095011260A506C
:101B580012220B5013220C5014220D5015220E5035
:101B680016220F50172210501822D89009360A361C
:101B78000B360C360D360E360F361036D890083226
:101B88000732063205320432033202320132015082
:101B98000210031004100510061007100810D8A42E
:101BA800D8EF0DF0DAEF0DF0A2EF0DF011C001F053
:101BB80012C002F013C003F014C004F015C005F001
:101BC80016C006F017C007F018C008F0120001C0D0
:101BD800DAF002C0DBF0600007F0F6FF60000BF0FF
:101BE800F7FFF86A08006F00D4FFDCF0010E01244B
:101BF800036E000E0220046E60000FF0F6FF600016
:101C080013F0F7FFF86A08006F00D4FFDDF0020E4A
:101C18000124036E000E0220046E60000FF0F6FF30
:101C2800600013F0F7FFF86A08006F00D4FFDEF0D9
:101C3800030E0124036E000E0220046E60000FF0F4
:101C4800F6FF600013F0F7FFF86A08006F00D4FF92
:101C5800DFF0000E0001E06F1200390193A937EFA1
:101C68000EF039EF0EF04FEF0EF0A3A93EEF0EF095
:101C780040EF0EF04FEF0EF002D84DEF0EF00500DA
:101C8800FA6E0001F051FD6EF151FE6EFF6AFA50D6
:101C980012006AEF0EF093A754EF0EF056EF0EF015
:101CA8006AEF0EF0A3A75BEF0EF05DEF0EF06AEFA0
:101CB8000EF002D86AEF0EF00500FA6E0001F2513C
:101CC800FD6EF351FE6EFF6AFA5012001100000E0D
:101CD8000A6E210E6EEC11F0000E6EEC11F07F0E04
:101CE8006EEC11F0220E6EEC11F0000E6EEC11F09D
:101CF800070E6EEC11F0000E0C6E000E0B6E400E0F
:101D0800036E200E0B24046E010E0C20056E100EBF
:101D1800066E3C0E05EC0FF00F0E0B26000E0C2283
:101D28000B4A0C2A040E0C5CD8A09DEF0EF09FEF16
:101D38000EF083EF0EF0120054C058F055C059F061
:101D4800000E0001E26F000EE16FBEEF0EF052C010
:101D58003EF053C03FF0580E406E000E416E56C024
:101D680042F057C043F07EEC05F03E500001E127F9
:101D78003F50E223600063F1F6FF600067F1F7FF70
:101D8800F86A0800F5500009D8A4CDEF0EF0CFEF9F
:101D98000EF0ABEF0EF0E1C052F0E2C053F01200CB
:101DA800016E0001F451D8B4DCEF0EF0DEEF0EF056
:101DB800D5EF0EF0390193B9E4EF0EF0E6EF0EF02F
:101DC800EBEF0EF0600007F0EAFD02EF0FF09399D9
:101DD800D20E5F24D96EDA6A000EDA22600007F0AC
:101DE800DFFF5F2A070E5F64FCEF0EF0FEEF0EF0D8
:101DF80000EF0FF0000E5F6E0001F40739019389C0
:101E08001200076E04C008F005C009F0BDEC10F020
:101E1800075007243D016E6F9EEC10F006283D0127
:101E28006C6F738B7FEC10F00350F9EC0FF028EF18
:101E38000FF0600023F0D9FF600027F0DAFFDF50D1
:101E4800F9EC0FF0084A092A06060628D8A42FEF4D
:101E58000FF031EF0FF01DEF0FF060EC10F01200F3
:101E680001C003F002C004F03CEF0FF0014A022A5F
:101E7800600007F0F6FF60000BF0F7FF000EF86E49
:101E88000F0EF76403D00800F55007D06F00DBFF92
:101E9800E9FF6F00DFFFEAFFEF500009D8A457EF12
:101EA8000FF059EF0FF03AEF0FF00350015C016E9D
:101EB80004500258026E1200640E00016E6F000E8C
:101EC8006F6F60C070F061C071F0000E736F000E2C
:101ED800726F000E756F000E746F700E526E000EEA
:101EE800536E62C054F063C055F06E0E566E000E0D
:101EF800576EA0EC0EF0000172516025D96E735137
:101F08006121DA6E000EDF6E1200000E066E000E02
:101F1800056E05500124036E06500220046E600011
:101F28000FF0F6FF600013F0F7FFF86A200E0524A3
:101F3800D96E010E0620DA6E08006F00D7FFDFFFAA
:101F4800054A062A040E065CD8A0ADEF0FF0AFEFE5
:101F58000FF08DEF0FF0120000EE20F111EE00F0FF
:101F6800EE6AE550E150FCE1E250FAE100EE00F1E2
:101F7800200EEE6AE806FDE100EEC2F0280EEE6AD9
:101F8800E806FDE15F6A5E6A5D6A5C6A5B6A5A6AD6
:101F9800080ED56E000ED66E000ED76E00010FEF3C
:101FA80000F0080E0001F461DCEF0FF0DEEF0FF037
:101FB800F6EF0FF0D20E5E24D96EDA6A000EDA223E
:101FC800DF503D01EA6F5E2A070E5E64EEEF0FF008
:101FD800F0EF0FF0F2EF0FF0000E5E6E0001F42B41
:101FE800F8EF0FF0390193991200016E02685A5008
:101FF800D8A401EF10F003EF10F01BEF10F016EF6C
:1020080010F03D0178AB0BEF10F00DEF10F012EF70
:1020180010F0600007F06BFD1BEF10F0050EE82EC6
:10202800FED700F0022E05EF10F0010E5A6E1200D6
:10203800000E126E000E116E2DEF10F010C003F09E
:10204800046A0EC005F00FC006F0F8EC0AF0114A59
:10205800122A11500C24D96E12500D20DA6EDF505E
:10206800106E1050D8A43BEF10F03DEF10F022EFA7
:1020780010F012003F013E9F600007F03BFF01C0D7
:1020880004F002C005F003C006F005C004F006C065
:1020980005F0066A04503C6F60000FF03DFF3E8F6C
:1020A800030E056E990E046EEC0EE82EFED7042E74
:1020B800FCD7052EFAD7120001685A50D8A467EF4A
:1020C80010F069EF10F07EEF10F079EF10F03D019D
:1020D80079A571EF10F073EF10F075EF10F07EEF47
:1020E80010F0050EE82EFED700F0012E6BEF10F071
:1020F800010E5A6E120001685A50D8A486EF10F0EB
:1021080088EF10F09DEF10F098EF10F03D0173BBD1
:1021180090EF10F092EF10F094EF10F09DEF10F0A8
:10212800050EE82EFED700F0012E8AEF10F0010E02
:102138005A6E120001685A50D8A4A5EF10F0A7EF04
:1021480010F0BCEF10F0B7EF10F03D0177AFAFEF34
:1021580010F0B1EF10F0B3EF10F0BCEF10F0050E77
:10216800E82EFED700F0012EA9EF10F0010E5A6EEE
:1021780012003D0173AFC3EF10F0C5EF10F0CDEFC3
:1021880010F05A50D8B4CBEF10F0CDEF10F0DBEFD1
:1021980010F0000E5A6E800E746F000E756F030EED
:1021A8007B6F840E736F000E796F000E766F1200CE
:1021B800056EBDEC10F0055005243D016E6F9EECD8
:1021C80010F0020E3D016C6F738B7FEC10F0035022
:1021D800F9EC0FF00450F9EC0FF060EC10F012007D
:1021E800CA0E5D24D96EDA6A000EDA226F00A3F7F0
:1021F800DFFF5D2A070E5D6404EF11F006EF11F0B2
:1022080008EF11F0000E5D6E5B2A120009500B02F8
:102218006F00CCFF0DF06F00D0FF0EF009500C02DC
:10222800F3500E260A500B02F3500E260DC009F08B
:102238000EC00AF01200100E3F013E6F010E3F6FF4
:10224800000E3A6F000E396F000E386F000E3D6FAA
:10225800820E3C6FF20E3B6F3E8F1200000E39016A
:10226800C06F000EC16F470EC26FD70EC36FE00E6E
:10227800C46F060EC56F3F0EC66F000EC76F120003
:1022880098EC11F032EC11F0F1EC0CF062EC11F07A
:102298001FEC11F049EC0DF0BDEC10F01200200E0F
:1022A800016E010E026E000E046E000E036E040E27
:1022B800066E000E056EB1EC08F01200600E3901D2
:1022C800D96F000EDB6FFC0EDD6F080EDF6F000E9E
:1022D800DE6F1200066E000E036E06C004F03C0EA0
:1022E800DCEC10F01200026E0250D4EC0EF012007A
:1022F80001C0F0F002C0F1F0120001C0F2F002C01B
:10230800F3F0120001C0ECF002C0EDF0120001C0C1
:10231800EEF002C0EFF0120001C0EAF002C0EBF0EC
:102328001200F4EC10F01200D29A1200800E120083
:08233800400E12001200120019
:10F22600000608205F0000000000000000002F001C
:10F236000000000700070000147F147F1400242A32
:10F246007F2A1200231308646200364955225000B3
:10F25600000503000000001C224100000041221CA2
:10F26600000014083E08140008083E0808000000C4
:10F27600A0600000080808080800006060000000A0
:10F286002010080402003E5149453E0000427F40DE
:10F2960000004261514946002141454B3100181496
:10F2A600127F10002745454539003C4A4949300040
:10F2B60001710905030036494949360006494929BD
:10F2C6001E00003636000000005636000000081406
:10F2D60022410000141414141400004122140800E2
:10F2E600020151090600324959513E007C121112A1
:10F2F6007C007F49494936003E41414122007F4119
:10F3060041221C007F49494941007F090909010042
:10F316003E4149497A007F0808087F0000417F4145
:10F3260000002040413F01007F08142241007F4039
:10F33600404040007F020C027F007F0408107F00DF
:10F346003E4141413E007F09090906003E415121E7
:10F356005E007F09192946004649494931000101E5
:10F366007F0101003F4040403F001F2040201F001A
:10F376003F4038403F0063140814630007087008D4
:10F386000700615149454300007F414100AA55AA43
:10F3960055AA55000041417F000004020102040005
:10F3A60040404040400000030500000020545454F3
:10F3B60078007F48444438003844444420003844A8
:10F3C60044487F00385454541800087E090102004E
:10F3D60018A4A4A47C007F080404780000447D409F
:10F3E60000004080847D00007F102844000000411A
:10F3F6007F4000007C04180478007C080404780030
:10F40600384444443800FC242424180018242418C2
:10F41600FC007C0804040800485454542000043FAF
:10F42600444020003C4040207C001C2040201C0022
:10F436003C4030403C004428102844001CA0A0A0BA
:10F446007C004464544C440000107C8200000000A0
:10F45600FF00000000827C10000000060909060477
:10F4660006205F00000003A000C00C00F94F806B6F
:10F47600EB00988C8052A58003000001C88089C0EB
:10F486000050850021C200084000208200002000B4
:10F49600188C00FA2F804BE0805A66808AA500E01F
:10F4A6008F80EAAB0072A9009A8C00FAAF804AA757
:10F4B6000001400009400021488051450089420072
:10F4C60042660072A6807A8780FAA500722500FA45
:10F4D6002700FAA880FA8800722B00F88F808BE844
:10F4E600808BE800F88D80F82080F90F80F9CF80B6
:10F4F600722700FA8400722740FA85804AA90083A1
:10F50600E800F02F00E06E00F0EF00D88D80C0EC30
:10F51600009AAC8003E880C081808BE00042040042
:10F52600082080020400312380F923003124803131
:10F536002F8031628023EA00255380F9038002E0A0
:10F546000006E000F8428003E000798780390380F6
:10F556003123007D23003127C078840029400043F1
:10F56600E40070270060660070670048C480745726
:10F576008059E68023E8800360008BE200610C007E
:10F586000810205F000000000000000000000000DE
:10F5960000000000000000F800000000000000333A
:10F5A6003000000000100C06100C060000000000E1
:10F5B6000000000040C07840C0784000043F0404CA
:10F5C6003F040400007088FC08300000001820FF8B
:10F5D600211E0000F008F000E018000000211C03C6
:10F5E6001E211E0000F00888700000001E21232442
:10F5F6001927211010160E00000000000000000060
:10F6060000000000000000E01804020000000007EF
:10F616001820400000020418E000000000402018F6
:10F6260007000000404080F0804040000202010FC9
:10F6360001020200000000F0000000000101011FAD
:10F6460001010100000000000000000080B0700011
:10F6560000000000000000000000000000010101A1
:10F666000101010100000000000000000030300030
:10F67600000000000000000080601804006018060A
:10F686000100000000E010080810E000000F102044
:10F6960020100F00001010F8000000000020203F8E
:10F6A6002020000000700808088870000030282418
:10F6B60022213000003008888848300000182020B9
:10F6C60020110E000000C02010F8000000070424DE
:10F6D600243F240000F80888880808000019212023
:10F6E60020110E0000E0108888180000000F11207D
:10F6F60020110E0000380808C83808000000003F36
:10F70600000000000070880808887000001C222194
:10F7160021221C0000E010080810E0000000312241
:10F7260022110F00000000C0C000000000000030E1
:10F736003000000000000080000000000000806033
:10F7460000000000000080402010080000010204B4
:10F75600081020004040404040404000040404049B
:10F766000404040000081020408000000020100857
:10F7760004020100007048080808F000000000308C
:10F7860036010000C030C828E810E000071827241A
:10F7960023140B000000C038E0000000203C2302C8
:10F7A6000227382008F8888888700000203F20202B
:10F7B60020110E00C030080808083800071820205D
:10F7C6002010080008F808080810E000203F202054
:10F7D60020100F0008F88888E8081000203F202035
:10F7E6002320180008F88888E8081000203F200029
:10F7F60003000000C0300808083800000718202061
:10F80600221E020008F808000008F808203F21011F
:10F8160001213F20000808F8080800000020203FCA
:10F826002020000000000808F8080800C08080803A
:10F836007F00000008F888C028180800203F200133
:10F846002638200008F8080000000000203F20208D
:10F856002020300008F8F800F8F80800203F003FA4
:10F86600003F200008F830C00008F808203F2000BC
:10F8760007183F00E01008080810E0000F102020CD
:10F8860020100F0008F808080808F000203F2101A2
:10F8960001010000E01008080810E0000F182424F9
:10F8A60038504F0008F8888888887000203F20006C
:10F8B600030C302000708808080838000038202122
:10F8C60021221C00180808F8080818000000203F2C
:10F8D6002000000008F808000008F808001F202093
:10F8E60020201F000878880000C838080000073864
:10F8F6000E010000F80800F80008F800033C0700B5
:10F90600073C0300081868808068180820302C031C
:10F91600032C30200838C800C83808000000203FF3
:10F926002000000010080808C838080020382621E2
:10F9360020201800000000FE020202000000007FE6
:10F9460040404000000C30C00000000000000001F4
:10F956000638C00000020202FE00000000404040DF
:10F966007F00000000000402020204000000000004
:10F976000000000000000000000000008080808081
:10F986008080808000020204000000000000000069
:10F996000000000000008080808000000019242202
:10F9A60022223F2008F8008080000000003F11203E
:10F9B60020110E000000008080800000000E112043
:10F9C60020201100000000808088F800000E112021
:10F9D60020103F200000808080800000001F22222F
:10F9E60022221300008080F0888888180020203F9B
:10F9F600202000000000808080808000006B9494AE
:10FA06009493600008F8008080800000203F210069
:10FA160000203F2000809898000000000020203F32
:10FA260020200000000000809898000000C0808020
:10FA3600807F000008F8000080808000203F2402BC
:10FA46002D302000000808F8000000000020203FAC
:10FA5600202000008080808080808000203F200061
:10FA66003F20003F8080008080800000203F2100F2
:10FA760000203F200000808080800000001F2020A2
:10FA860020201F00808000808000000080FFA120D1
:10FA960020110E000000008080808000000E1120E2
:10FAA60020A0FF80808080008080800020203F2171
:10FAB6002000010000008080808080000033242424
:10FAC60024241900008080E0808000000000001FD0
:10FAD600202000008080000000808000001F202081
:10FAE60020103F20808080000080808000010E3042
:10FAF6000806010080800080008080800F300C03A3
:10FB06000C300F0000808000808080000020312EA5
:10FB16000E312000808080000080808080818E7081
:10FB26001806010000808080808080000021302C33
:10FB36002221300000000000807C0202000000004C
:10FB4600003F404000000000FF00000000000000F1
:10FB5600FF0000000002027C800000000040403FE1
:10FB6600000000000006010102020404000000007B
:10FB760000000000FCFEFF0F03030303030303035F
:10FB8600030303030303030383838383838383833F
:10FB9600030303030303030303030303030303032F
:10FBA600FFFFFE000000000000000000000000FF54
:10FBB600FF000000FFFF000000001088888888F022
:10FBC600F0000000F8F8201018180000F9F90000FD
:10FBD60000001088888888F0F0000000FFFF080801
:10FBE60008F8F000000000FFFF000000F0F0888831
:10FBF60088F8F000FFFFFF00000000000000000092
:10FC06008060B8B83CFEFFFFFFFF3FBF3FFFFFFF2E
:10FC1600FFFF3EBE3C78F0C0000000000000000080
:10FC2600FFFFFF0000000000000000000000000FC2
:10FC36000F08080007030000000007070808000F68
:10FC46000F0000000F0F0000000000000F0F000063
:10FC5600000007070808000F0F0000000F0F080834
:10FC6600080707000000000F0F0000000307080840
:10FC760008080400FFFFFF0000000000000000006D
:10FC860023F8FFFFFEF0CFDFC7F0FFFFFFF0E7DF4F
:10FC9600CFF0FEFFFFF8E75F000000000000000065
:10FCA600FFFFFF000000000000000000000000C091
:10FCB600E0301010002000000000F0F0000000000E
:10FCC60000808080800000000000008080800000AE
:10FCD600000000F0F000000000808000000000003E
:10FCE600000000000000000000000000000000000E
:10FCF60000000000FFFFFF00000000000000000001
:10FD0600000003070F0F1F1F3F3F3F3F3F3F3F3F8F
:10FD16001F1F0F0F07030100000000000000000076
:10FD2600FFFFFF0000000000000000000000003F91
:10FD36007F808080804000000000FFFF0000003FC1
:10FD46007F8080807F7F000000007F7F80800000B2
:10FD5600000000FFFF1C142241808000000000000C
:10FD6600000000000000000000000000000000008D
:10FD760000000000FFFFFF00000000000000000080
:10FD8600000000000000000000000000000000402D
:10FD9600F0F0F0F0E0000000F0F0B0D0E00000007D
:10FDA600FFFFFF0000000000000000000000000050
:10FDB600000000000000000000000000000000003D
:10FDC600000000000000000000000000000000002D
:10FDD600000000000000000000000000000000001D
:10FDE600000000000000000000000000000000000D
:10FDF60000000000071F3F3C7070707070707070DC
:10FE060070707070707070707070707070707070EC
:10FE160071717171707070707071717170707070D5
:10FE26003F3F1F000000000000000000000000002F
:10FE360000000000000000000000000000000000BC
:10FE460000000000000000000000000000000000AC
:10FE5600000000000000000000000000000000009C
:10FE6600000000000000000000000000000000008C
:10FE7600000000000000000000000000000000007C
:10FE86003C64C08400000000F80C04040CF8000078
:10FE960000000000F00000000000101010E000005C
:10FEA6000000F0000000F0F000000000101010E06C
:10FEB600C00000000000000000000000000000007C
:10FEC600000000000000040080443C18000000F818
:10FED6008C04043CF800000000080CFC0000000044
:10FEE6000000FC840084FCF8000000000000000014
:10FEF60000000000000000000000000000000000FC
:10FF06000008090702000000070C08080C0700009B
:10FF1600102020301F00000002070908000F000013
:10FF260000000F0808000701000000070908000F7D
:10FF36000F000000000000000000000000000000AC
:10FF46000000000000000E0B08080808000000076B
:10FF56000F08080C070000000000000F000000005A
:10FF6600000000080804070100000000000000006F
:10FF76000000000053706565643A20253075206BDB
:10FF8600487A0A0A5072657373202B20616E6420CA
:10FF96002D0A666F72206D616E75616C206D6F64DF
:10FFA60065005072657373202B20616E64202D0AE4
:10FFB600666F72206175746F6D61746963206D6F11
:10FFC600646500507265737320616E792062757482
:10FFD600746F6E0A746F20546F67676C6520436C8C
:10FFE6006F636B004D616E75616C204D6F646500CB
:0AFFF60048494748004C4F570000EF
:020000040020DA
:10000000FF0FFF0FFF0FFF0FFF0FFF0FFF0FFF0F80
:020000040030CA
:0A0000008CFFF7FF9FFFFFFFFFFFDB
:00000001FF
