:020000040000FA
:040000000DEF00F010
:04000800D1EF0EF036
:10001800FF001BEF10F0AFEC11F0E9EC0AF0000E56
:100028000001AE6FFA0EAF6F000EB06F000EB16F29
:10003800000EB26F000EB36F000EB46F000EB56FF6
:10004800010EB66F520E0001776F2B0E766F000E01
:10005800E82EFED7762FFCD7772FFAD700F03F018E
:100068003D510001BF6FC06BC16BBFC077F0C0C00E
:1000780078F0766B76C0BFF077C0C0F078C0C1F07A
:100088003F013C510001BF11766F000EC011776F20
:10009800000EC111786F77C078F076C077F0766B74
:1000A80076C0BFF077C0C0F078C0C1F03F013B51C7
:1000B8000001BF11BF6F000EC011C06F000EC1114B
:1000C800C16FBF51016EC051026EC151036E046A07
:1000D800056A066A076A086A000E096EFA0E0A6E51
:1000E800000E0B6E000E0C6E000E0D6E000E0E6EE6
:1000F800000E0F6E000E106E02EC0EF001C0B7F08D
:1001080002C0B8F003C0B9F004C0BAF005C0BBF033
:1001180006C0BCF007C0BDF008C0BEF0B7C076F09E
:10012800B8C077F0B9C078F0BAC079F0BBC07AF03F
:10013800BCC07BF0BDC07CF0BEC07DF0160EAFEF3A
:1001480000F00001D8907D337C337B337A337933E8
:10015800783377337633E82EA5EF00F076C0B7F022
:1001680077C0B8F078C0B9F079C0BAF07AC0BBF0FF
:100178007BC0BCF07CC0BDF07DC0BEF07E0E606F61
:10018800000E616F7A0E626FFF0E636FB7C064F086
:10019800B8C065F0B9C066F0BAC067F0BBC068F017
:1001A800BCC069F0BDC06AF0BEC06BF0CBEC0FF00C
:1001B800BEEC11F0000E376E000E366E000E396E72
:1001C800000E386E7E0E3A6E000E3B6EC5EC09F0DE
:1001D80097EC0EF0CAA0F3EF00F0F5EF00F0D1EFC6
:1001E80001F0CAA2FAEF00F0FCEF00F0D1EF01F045
:1001F8000001B651D8B403EF01F006EF01F0010E8B
:1002080007EF01F0000EB66F3A011951D8B40FEF9D
:1002180001F011EF01F037EF01F03F013E9F000EB2
:100228003A01196FBEEC11F0000E376E3668000EF9
:10023800396E000E386EEA0E3A6EFF0E3B6EC5EC54
:1002480009F0000E376E000E366E000E396E180E6D
:10025800386EC90E3A6EFF0E3B6EC5EC09F097EC8E
:100268000EF0C5EF01F0260E196F3F013E8F000119
:10027800BF51016EC051026EC151036E046A056A16
:10028800066A076A086AAEC009F0AFC00AF0B0C0D3
:100298000BF0B1C00CF0B2C00DF0B3C00EF0B4C09A
:1002A8000FF0B5C010F002EC0EF001C0B7F002C0BC
:1002B800B8F003C0B9F004C0BAF005C0BBF006C07E
:1002C800BCF007C0BDF008C0BEF0B7C076F0B8C03B
:1002D80077F0B9C078F0BAC079F0BBC07AF0BCC08A
:1002E8007BF0BDC07CF0BEC07DF0160E86EF01F03D
:1002F8000001D8907D337C337B337A33793378337C
:1003080077337633E82E7CEF01F076C0B7F077C00C
:10031800B8F078C0B9F079C0BAF07AC0BBF07BC049
:10032800BCF07CC0BDF07DC0BEF07E0E606F000EDC
:10033800616F7A0E626FFF0E636FB7C064F0B8C06A
:1003480065F0B9C066F0BAC067F0BBC068F0BCC061
:1003580069F0BDC06AF0BEC06BF0CBEC0FF0BEEC2C
:1003680011F0000E376E000E366E000E396E000E5C
:10037800386E7E0E3A6E000E3B6EC5EC09F033EF18
:1003880001F0290E0001776F960E766F7F0EE82E2A
:10039800FED7762FFCD7772FFAD70001B651D8A40D
:1003A800D8EF01F0DAEF01F03BEF02F0CAB2DFEF6D
:1003B80001F0E1EF01F0E8EF01F0CAA0E6EF01F08B
:1003C800E8EF01F03BEF02F0BDB2EDEF01F0F0EF26
:1003D80001F0010EF1EF01F0000EFF0A766F76478B
:1003E800BD507619FD0B7619BD6EBEEC11F0CDA28D
:1003F80000EF02F002EF02F011EF02F0000E376E8C
:100408003668000E396E000E386EF60E3A6EFF0E24
:100418003B6EC5EC09F01EEF02F0000E376E366831
:10042800000E396E000E386EFB0E3A6EFF0E3B6EF4
:10043800C5EC09F0000E376E000E366E000E396EF0
:10044800180E386EA80E3A6EFF0E3B6EC5EC09F01A
:1004580097EC0EF0150E0001776F4B0E766FBE0EFF
:10046800E82EFED7762FFCD7772FFAD700F0CAA24E
:1004780040EF02F042EF02F0EEEF02F00001C1514E
:1004880009E1090EC05DD8A04CEF02F04EEF02F072
:10049800EEEF02F0B651D8B454EF02F056EF02F086
:1004A800EEEF02F0FF0EBF5F080EC05B000EC15BEF
:1004B800BFC001F0C0C002F0C1C003F0A9EC10F049
:1004C8000001BF51016EC051026EC151036E046A32
:1004D800056A066A076A086AAEC009F0AFC00AF082
:1004E800B0C00BF0B1C00CF0B2C00DF0B3C00EF04C
:1004F800B4C00FF0B5C010F002EC0EF001C0B7F0B8
:1005080002C0B8F003C0B9F004C0BAF005C0BBF02F
:1005180006C0BCF007C0BDF008C0BEF0B7C076F09A
:10052800B8C077F0B9C078F0BAC079F0BBC07AF03B
:10053800BCC07BF0BDC07CF0BEC07DF0160EAFEF36
:1005480002F00001D8907D337C337B337A337933E2
:10055800783377337633E82EA5EF02F076C0B7F01C
:1005680077C0B8F078C0B9F079C0BAF07AC0BBF0FB
:100578007BC0BCF07CC0BDF07DC0BEF07E0E606F5D
:10058800000E616F7A0E626FFF0E636FB7C064F082
:10059800B8C065F0B9C066F0BAC067F0BBC068F013
:1005A800BCC069F0BDC06AF0BEC06BF0CBEC0FF008
:1005B800BEEC11F0000E376E000E366E000E396E6E
:1005C800000E386E7E0E3A6E000E3B6EC5EC09F0DA
:1005D80097EC0EF0CAA0F3EF02F0F5EF02F0EEEFA1
:1005E80000F00001BF05F70EC059030EC159D8B07D
:1005F80000EF03F002EF03F0EEEF00F0B651D8B4CD
:1006080008EF03F00AEF03F0EEEF00F0FF0EBF274C
:10061800080EC023000EC123BFC001F0C0C002F005
:10062800C1C003F0A9EC10F00001BF51016EC05128
:10063800026EC151036E046A056A066A076A086A8F
:10064800AEC009F0AFC00AF0B0C00BF0B1C00CF0FA
:10065800B2C00DF0B3C00EF0B4C00FF0B5C010F0CA
:1006680002EC0EF001C0B7F002C0B8F003C0B9F058
:1006780004C0BAF005C0BBF006C0BCF007C0BDF0AE
:1006880008C0BEF0B7C076F0B8C077F0B9C078F04F
:10069800BAC079F0BBC07AF0BCC07BF0BDC07CF0BA
:1006A800BEC07DF0160E63EF03F00001D8907D33D5
:1006B8007C337B337A337933783377337633E82E68
:1006C80059EF03F076C0B7F077C0B8F078C0B9F04A
:1006D80079C0BAF07AC0BBF07BC0BCF07CC0BDF07A
:1006E8007DC0BEF07E0E606F000E616F7A0E626F85
:1006F800FF0E636FB7C064F0B8C065F0B9C066F0AC
:10070800BAC067F0BBC068F0BCC069F0BDC06AF091
:10071800BEC06BF0CBEC0FF0DCEF00F00DEF00F09B
:10072800000E316E000E306E000E336E000E326E0B
:10073800000E256E000E246EDDC01FF0070E1F167A
:10074800D8A4A9EF03F0ABEF03F0D5EF04F0DCC0B9
:1007580001F0026A000E0A6E080E096EDDC007F08D
:10076800086A95EC0CF007C003F008C004F075ECBB
:1007780011F001C022F002C023F0600077F0F6FF0C
:1007880060007BF0F7FF000EF86E0F0EF76403D0E1
:100798000800F55007D06F00DBFFE9FF6F00DFFFAF
:1007A800EAFFEF501F6E0001DE511F5C016E026A06
:1007B800D8A0020622C003F023C004F075EC11F0A3
:1007C800040E01242A6E000E02202B6E000E316EDC
:1007D800000E306EBBEF04F0000E336E000E326E6A
:1007E800A6EF04F0DCC001F0026A30C003F031C0AB
:1007F80004F075EC11F0DAC01FF0DBC020F00150F6
:100808001F26025020222A501F262B502022325009
:100818001F263350202260007FF0F6FF600083F02F
:10082800F7FFF86A0800F550246E256A000E356E49
:10083800000E346E34C01FF0010E206E000E216EC3
:100848001F2A2AEF04F0D890203621361F2E27EFD2
:1008580004F0245020162550211620502110D8B419
:1008680038EF04F03AEF04F089EF04F00001E051AA
:10087800D8A441EF04F043EF04F066EF04F03250DF
:1008880019240F6E33501A20106E30C01FF031C07B
:1008980020F0D8901F362036D8901F362036D890B2
:1008A8001F3620361B501F261C50202234501F2470
:1008B800116E35502020126E010E136E29EC08F0CF
:1008C80094EF04F0325019240F6E33501A20106E32
:1008D80030C01FF031C020F0D8901F362036D89095
:1008E8001F362036D8901F3620361B501F261C5026
:1008F800202234501F24116E35502020126E000E15
:10090800136E29EC08F094EF04F00001E051D8A42C
:1009180090EF04F092EF04F043EF04F066EF04F078
:10092800344A352A35BEA2EF04F0355009E1080EE5
:10093800345CD8A0A2EF04F0A4EF04F01EEF04F09A
:10094800324A332A0001DC511F6E206A1F50325C84
:100958003350800A216E2050800A2158D8A0B7EF62
:1009680004F0B9EF04F0F6EF03F0304A312ADDC0A5
:1009780007F0086A000E0A6E080E096E95EC0CF076
:100988000750305C3150800A1F6E0850800A1F588B
:10099800D8A0D1EF04F0D3EF04F0F0EF03F0CDEFDF
:1009A80005F0600077F0F6FF60007BF0F7FF000EBF
:1009B800F86E0F0EF76403D00800F55007D06F00EB
:1009C800DBFFE9FF6F00DFFFEAFFEF501F6E00015A
:1009D800DE511F5C016E026AD8A00206000E0A6E84
:1009E800080E096EDC51DD036F00CCFF07F06F00C5
:1009F800D0FF08F095EC0CF007C003F008C004F035
:100A080075EC11F0040E01242A6E000E02202B6EE4
:100A18002A500001DA251F6E2B50DB21206E600062
:100A28007FF0F6FF600083F0F7FFF86A0800F550E2
:100A3800266E276A000E296E070E286E000E2D6E90
:100A4800000E2C6EBBEF05F0000E2F6E000E2E6E02
:100A5800A6EF05F028C01FF0010E206E000E216ED3
:100A68001F2A3AEF05F0D890203621361F2E37EF8F
:100A780005F0265020162750211620502110D8B4F2
:100A880048EF05F04AEF05F077EF05F00001E05177
:100A9800D8A451EF05F053EF05F065EF05F02C50A1
:100AA80019240F6E2D501A20106E2E501B24116E13
:100AB8002F501C20126E010E136E29EC08F082EFE5
:100AC80005F02C5019240F6E2D501A20106E2E5040
:100AD8001B24116E2F501C20126E000E136E29EC71
:100AE80008F082EF05F00001E051D8A47EEF05F090
:100AF80080EF05F053EF05F065EF05F02806D8A064
:100B0800290629BE8CEF05F08AEF05F0A4EF05F061
:100B1800000E296E070E286E2A4A2B2A2A50000139
:100B2800DA251F6E2B50DB21206E60007FF0F6FF68
:100B3800600083F0F7FFF86A0800F550266E276A10
:100B48002E4A2F2A0001DD511F6E206A1F502E5C8D
:100B58002F50800A216E2050800A2158D8A0B7EF64
:100B680005F0B9EF05F02EEF05F02C4A2D2ADC51DF
:100B78001F6E206A1F502C5C2D50800A216E205059
:100B8800800A2158D8A0CBEF05F0CDEF05F028EF6B
:100B980005F01200600003F1D9FF600007F1DAFFE9
:100BA8006F007BFFF6FF6F0077FFF7FFF86A08001A
:100BB800F550250AD8A4E3EF05F0E5EF05F004EFBA
:100BC80007F0600003F1D9FF600007F1DAFFDE2AC1
:100BD800000EDD22000E0001E46F000EE36FE3C09B
:100BE800E7F0E4C0E8F0E569E669000E516E000E32
:100BF800506E51EF06F00001E781600003F1D9FF64
:100C0800600007F1DAFFDE2A000EDD2251EF06F060
:100C18000001E78301EF06F00001E78501EF06F028
:100C28000001E78701EF06F00001E78901EF06F010
:100C3800000E516E010E506E51EF06F0600003F188
:100C4800D9FF600007F1DAFF6F007BFFF6FF6F0046
:100C580077FFF7FFF86A0800F550446E456A45507B
:100C6800000AD8B43AEF06F01CEF06F04450200A08
:100C7800D8B414EF06F0030AD8B418EF06F0080A3F
:100C8800D8B410EF06F0060AD8B4FFEF05F01D0A35
:100C9800D8B40CEF06F01CEF06F050505110D8B441
:100CA80058EF06F05AEF06F022EF06F00001E7A130
:100CB80060EF06F062EF06F063EF06F0E79360007E
:100CC80003F1D9FF600007F1DAFF6F007BFFF6FF41
:100CD8006F0077FFF7FFF86A0800F550750AD8A487
:100CE80078EF06F07AEF06F0C5EF06F0600003F142
:100CF800D9FF600007F1DAFFDE2A000EDD2260006E
:100D08000BF1D9FF60000FF1DAFF6F007CFF44F0B0
:100D1800020EDE266F007CFF45F0000EDD2260002B
:100D280013F1D9FF600017F1DAFF6F0078FF46F082
:100D38006F0074FF47F046C048F047C049F04A6A60
:100D48004B6A4C6A4D6A4E6A4F6A3EC01EF03FC0FD
:100D58001FF048C020F049C021F04AC022F04BC023
:100D680023F04CC024F04DC025F04EC026F04FC0F3
:100D780027F027EC07F01EC03EF01FC03FF026EF1B
:100D880007F0600003F1D9FF600007F1DAFF6F0098
:100D98007BFFF6FF6F0077FFF7FFF86A0800F55052
:100DA800250AD8A4DAEF06F0DCEF06F0F5EF06F036
:100DB800600003F1D9FF600007F1DAFFDE2A000EB8
:100DC800DD22000E046E250E036E3EC005F03FC006
:100DD80006F05EEC0BF0000E3F6E010E3E6E26EF45
:100DE80007F0600003F1D9FF600007F1DAFFDE2A9F
:100DF800000EDD22000E3F6E000E3E6E26EF07F05D
:100E0800600003F1D9FF600007F1DAFF6F007BFF94
:100E1800F6FF6F0077FFF7FFF86A0800F550036EDA
:100E2800046A3EC005F03FC006F05EEC0BF06000BF
:100E380003F1D9FF600007F1DAFFDE2A000EDD2298
:100E4800EFEF06F012000001E6BF2DEF07F02FEFDD
:100E580007F030EF07F0E793E6BF3DEF07F0E65104
:100E680006E1E505D8B03BEF07F03DEF07F043EFAB
:100E780007F0000E316E010E306E47EF07F0E5C047
:100E880030F0E6C031F0E3C032F0E4C033F020C007
:100E980034F021C035F022C036F023C037F024C02A
:100EA80038F025C039F026C03AF027C03BF0000ED4
:100EB8003D6E1F0E3C6E000E01011F6FDAEF07F04A
:100EC8003C06D8A03D06000E3C24D96E010E3D20FC
:100ED800DA6E34C001F035C002F036C003F037C016
:100EE80004F038C005F039C006F03AC007F03BC03E
:100EF80008F00A0E096E000E0A6E000E0B6E000E48
:100F08000C6E000E0D6E000E0E6E000E0F6E000EB3
:100F1800106ECAEC0BF001C028F002C029F003C023
:100F28002AF004C02BF005C02CF006C02DF007C035
:100F38002EF008C02FF02850300FDF6E3006D8A0F2
:100F480031063206D8A0330634C001F035C002F0AD
:100F580036C003F037C004F038C005F039C006F0D9
:100F68003AC007F03BC008F00A0E096E000E0A6E80
:100F7800000E0B6E000E0C6E000E0D6E000E0E6E47
:100F8800000E0F6E000E106E71EC0AF001C034F006
:100F980002C035F003C036F004C037F005C038F0A1
:100FA80006C039F007C03AF008C03BF03C503D108D
:100FB800D8B4E1EF07F0E3EF07F014EF08F034508E
:100FC800351036103710381039103A103B10D8A4A5
:100FD800F0EF07F0F2EF07F064EF07F031BEFFEF34
:100FE80007F0315006E13004D8B0FDEF07F0FFEF0D
:100FF80007F064EF07F033BE0AEF08F0335008E15A
:101008003204D8A00AEF08F00CEF08F014EF08F04B
:101018000001E7B312EF08F014EF08F064EF07F0EF
:101028001EC013F01FC014F0000E3C24156E010EF4
:101038003D20166E32C017F033C018F032EC0CF0B9
:1010480013C01EF014C01FF0120000EC12F0015083
:101058000F5C1050800A146E0250800A1458D8B0E1
:1010680038EF08F03AEF08F0FCEF08F005EC12F062
:101078000150115C1250800A146E0250800A1458F4
:10108800D8A049EF08F04BEF08F0E3EF08F0FCEFC9
:1010980008F011C014F0070E1416010E156E142A6C
:1010A80058EF08F0D8901536142E56EF08F011C0F6
:1010B80007F012C008F0000E0A6E080E096E95ECD3
:1010C8000CF0070ED89007360836E82E66EF08F0C1
:1010D800200E166E010E176E07501626085017229E
:1010E8000F501624D96E10501720DA6E1550DF12E3
:1010F800FCEF08F011C014F0070E1416010E156E5F
:10110800142A89EF08F0D8901536142E87EF08F0C6
:101118001550FF0A166E11C007F012C008F0000E35
:101128000A6E080E096E95EC0CF0070ED89007367B
:101138000836E82E9AEF08F0200E176E010E186E8A
:1011480007501726085018220F501724D96E105030
:101158001820DA6E1650DF16FCEF08F011C014F0F4
:10116800070E1416010E156E142ABDEF08F0D8905C
:101178001536142EBBEF08F011C007F012C008F0A6
:10118800000E0A6E080E096E95EC0CF0070ED8904A
:1011980007360836E82ECBEF08F0200E166E010E43
:1011A800176E07501626085017220F501624D96EAE
:1011B80010501720DA6E1550DF1AFCEF08F01350A4
:1011C800146E156A1550000AD8B4EDEF08F0FCEF5C
:1011D80008F01450000AD8B47EEF08F0010AD8B419
:1011E8004DEF08F0030AD8B4B2EF08F0FCEF08F0AE
:1011F800120001C00BF002C00CF005500610D8A474
:1012080008EF09F00AEF09F00CEF09F0C4EF09F054
:1012180060002FF0D9FF600033F0DAFF60000FF0B4
:10122800DFFF05500B24076E06500C20086EFF0EDA
:101238000724D96EFF0E0820DA6E60000FF0DFFF7A
:10124800065007E1030E055CD8B02DEF09F02FEF2B
:1012580009F031EF09F0C4EF09F020EE01F00B506E
:10126800D9260C50DA2260000FF0DFFF20EE02F0E2
:101278000B50D9260C50DA2260000FF0DFFF055022
:101288000B24076E06500C20086EFE0E0724D96E3C
:10129800FF0E0820DA6E60000FF0DFFF05500B2408
:1012A800076E06500C20086EFD0E0724D96EFF0E3F
:1012B8000820DA6E60000FF0DFFF065007E1070E26
:1012C800055CD8B06AEF09F06CEF09F06EEF09F031
:1012D800C4EF09F020EE03F00B50D9260C50DA22A7
:1012E80060000FF0DFFF05500B24076E06500C203E
:1012F800086EFC0E0724D96EFF0E0820DA6E600017
:101308000FF0DFFF065007E1090E055CD8B08FEF3C
:1013180009F091EF09F093EF09F0C4EF09F00BC061
:1013280007F00CC008F0071E081E074A082A030E1B
:101338000714096E0A6A09500B260A500C22095034
:10134800055E0A50065AFC0E0516FF0E0616BBEF80
:1013580009F060002FF0D9FF600033F0DAFF600079
:101368000FF0DFFF0506D8A006060B4A0C2A055029
:101378000610D8A4C2EF09F0C4EF09F0ADEF09F0E8
:101388001200000E416E000E406E3AC001F03BC0E4
:1013980002F09FEC0FF001C042F002C043F0FE0ED5
:1013A80036183710D8A4DBEF09F0DDEF09F0EEEFBF
:1013B80009F0DCC001F0026A42C003F043C004F047
:1013C80075EC11F001508008366E0250D8A0E82A5A
:1013D8000008376E36283710D8A4F5EF09F0F7EF74
:1013E80009F012EF0AF0DCC001F0026A42C003F013
:1013F80043C004F075EC11F001508008076E0250EC
:10140800D8A0E82A0008086E000E0A6E020E096EBF
:1014180095EC0CF007C036F008C037F0000E3F6EB0
:10142800000E3E6E65EF0AF06000EBF0F6FF60001C
:10143800EFF0F7FF000EF86E0F0EF76403D0080008
:10144800F55007D06F00DBFFE9FF6F00DFFFEAFF11
:10145800EF500A0AD8A433EF0AF035EF0AF042EF4A
:101468000AF00001DD513826000E39223A4A3B2A9B
:10147800000E416E000E406E63EF0AF0DCC001F012
:10148800026A40C003F041C004F075EC11F0365018
:1014980001243C6E375002203D6E3CC019F03DC01F
:1014A8001AF038C01BF039C01CF03AC01DF03BC020
:1014B8001EF094EC03F03A4A3B2A404A412A3E4A3D
:1014C8003F2A42503E5C43503F58D8A06EEF0AF086
:1014D80070EF0AF018EF0AF0120020EE11F0070E74
:1014E800DE6AE806FDE209500A100B100C100D1018
:1014F8000E100F101010D8B484EF0AF086EF0AF01F
:10150800D8EF0AF0010E196E94EF0AF0D890093658
:101518000A360B360C360D360E360F361036192AAB
:1015280010AE99EF0AF09BEF0AF08AEF0AF0D89014
:10153800113612361336143615361636173618364F
:101548000950015C0A5002580B5003580C500458BB
:101558000D5005580E5006580F500758105008588F
:10156800D8A0B9EF0AF0BBEF0AF0CCEF0AF00950A7
:10157800015E0A50025A0B50035A0C50045A0D507F
:10158800055A0E50065A0F50075A1050085A118023
:10159800D89010320F320E320D320C320B320A3222
:1015A8000932192E9BEF0AF011C001F012C002F0A7
:1015B80013C003F014C004F015C005F016C006F0FF
:1015C80017C007F018C008F01200090E0F6E1E0EA3
:1015D8000E6EE40EE82EFED70E2EFCD70F2EFAD78D
:1015E80000D0AE0ED9EC11F0D50ED9EC11F0800E6A
:1015F800D9EC11F0A80ED9EC11F03F0ED9EC11F08E
:10160800D30ED9EC11F0000ED9EC11F0400ED9EC44
:1016180011F08D0ED9EC11F0140ED9EC11F0200E4A
:10162800D9EC11F0000ED9EC11F0A10ED9EC11F0A3
:10163800C80ED9EC11F0DA0ED9EC11F0120ED9EC73
:1016480011F0810ED9EC11F0CF0ED9EC11F0D90EB2
:10165800D9EC11F0F10ED9EC11F0DB0ED9EC11F048
:10166800400ED9EC11F0A40ED9EC11F0A60ED9EC6D
:1016780011F02E0ED9EC11F0AF0ED9EC11F0860E48
:10168800016EF50E026E51EC0EF0090E0F6E1E0E75
:101698000E6EE40EE82EFED70E2EFCD70F2EFAD7CC
:1016A80000D07A0E016EFB0E026EF4EC0FF097EC90
:1016B8000EF0120005500610D8B465EF0BF067EF76
:1016C8000BF070EF0BF005500610D8A46EEF0BF07E
:1016D80070EF0BF075EF0BF00350E2EC11F0C9EF6F
:1016E8000BF020EE04F00550D9260650DA22DE5021
:1016F800DE10D8B482EF0BF084EF0BF09FEF0BF005
:1017080020EE04F00550D9260650DA2210EE02F039
:101718000550E1260650E222DE50E65CE650800ADB
:101728000B6EDE50800A0B58D8B09DEF0BF09FEF80
:101738000BF0C9EF0BF020EE02F00550D926065049
:10174800DA226F0078FF07F06F0074FF08F060007E
:1017580017F0D9FF60001BF0DAFF6F0078FF09F07F
:101768006F0074FF0AF007500924D96E08500A2048
:10177800DA6E60000FF0DFFF20EE02F00550D92688
:101788000650DA22DE2A000EDD22120009500A1065
:101798000B100C100D100E100F101010D8B4D7EF3E
:1017A8000BF0D9EF0BF021EF0CF0010E116EE7EF03
:1017B8000BF0D89009360A360B360C360D360E3635
:1017C8000F361036112A10AEECEF0BF0EEEF0BF0DF
:1017D800DDEF0BF00950015C0A5002580B5003581A
:1017E8000C5004580D5005580E5006580F50075805
:1017F80010500858D8A003EF0CF005EF0CF015EFC7
:101808000CF00950015E0A50025A0B50035A0C5052
:10181800045A0D50055A0E50065A0F50075A1050C8
:10182800085AD89010320F320E320D320C320B3269
:101838000A320932112EEEEF0BF001C001F002C09E
:1018480002F003C003F004C004F005C005F006C0B0
:1018580006F007C007F008C008F012000001E7A171
:1018680038EF0CF03AEF0CF044EF0CF015C00CF028
:1018780016C00DF013C00EF014C00FF087EC10F076
:1018880018BE49EF0CF04BEF0CF051EF0CF017C0FD
:101898001CF018C01DF055EF0CF0000E1D6E000E68
:1018A8001C6E000E1B6E000E1A6E67EF0CF0000E19
:1018B800046E200E036E13C005F014C006F05EEC33
:1018C8000BF01A4A1B2A1C501A5C1B50800A196E0E
:1018D8001D50800A1958D8A074EF0CF076EF0CF060
:1018E8005BEF0CF00001E7B17CEF0CF07EEF0CF041
:1018F80088EF0CF015C00CF016C00DF013C00EF0F8
:1019080014C00FF087EC10F015C001F016C002F0FB
:101918009FEC0FF01C500124136E1D500220146E12
:101928001200000E0C6E0ABE9EEF0CF09CEF0CF03D
:10193800A4EF0CF0096C0A1ED8B00A2A010E0C6E2E
:1019480008BEABEF0CF0A9EF0CF0B1EF0CF0076C90
:10195800081ED8B0082A010E0C1A000E0E6E000ED2
:101968000D6E09500A10D8B4BCEF0CF0BEEF0CF0A5
:10197800E6EF0CF0010E0B6EC6EF0CF0D8900936AE
:101988000A360B2A0AAECBEF0CF0CDEF0CF0C2EF03
:101998000CF0D8900D360E360950075C0A500858DE
:1019A800D8A0D9EF0CF0DBEF0CF0E0EF0CF0095009
:1019B800075E0A50085A0D80D8900A3209320B2E59
:1019C800CDEF0CF00C50D8B4ECEF0CF0EEEF0CF0BF
:1019D800F2EF0CF00D6C0E1ED8B00E2A0DC007F0F9
:1019E8000EC008F01200C20E5D24D96EDA6A000E2D
:1019F800DA22000EDF6E3D01F9A705EF0DF007EFC3
:101A08000DF01BEF0DF0C20E5D24D96EDA6A000EE0
:101A1800DA220001DF8202D81BEF0DF00500FA6E12
:101A2800EE51FD6EEF51FE6EFF6AFA5012003D0155
:101A3800F9A321EF0DF023EF0DF037EF0DF0C20EF3
:101A48005D24D96EDA6A000EDA220001DF8402D83A
:101A580037EF0DF00500FA6EEC51FD6EED51FE6E9C
:101A6800FF6AFA501200C20E5D24D96EDA6A000EBF
:101A7800DA22DF50D8B443EF0DF045EF0DF054EF04
:101A88000DF002D852EF0DF00500FA6E0001EA5190
:101A9800FD6EEB51FE6EFF6AFA50120056EF0DF024
:101AA8005FEC11F01200000EBE6E000EBD6E000E4F
:101AB800BA6E000EBB6E000EBC6E070EC66EC30E6D
:101AC800C26EC00EC36EFC0EC46EFD0EC56EFD0E5A
:101AD8003A01706FBC0E606FC00E506F070E806FBA
:101AE800400E406F000E716F000E816F000E516F37
:101AF800800E416F010E616F000E5A6F000E5B6F12
:101B0800000E6A6F000E6B6F000E7A6F000E7B6F0F
:101B1800000E826F000E426F030E526F1C0E626F32
:101B2800000E726F4369536963697369070E836FA7
:101B380044695469646974690F0E846F090EE26F11
:101B4800220E096F210E086F260E196F160EE56F0B
:101B5800080EE16F120039019397EE0E016E190E0F
:101B6800026EECEC11F039019399800E016E200E93
:101B7800026EE7EC11F0000E3D01EC6F000EED6F08
:101B8800000EEE6F000EEF6F000EF06F000EF16F9B
:101B9800B00EF26F800EF36F000EF46F820EF56FC9
:101BA800060EF66F000EF76F000EF86F000EF96F55
:101BB800000EFA6F200E016E240E026EF6EC11F084
:101BC8001E0E016E240E026EF1EC11F0140E016E61
:101BD800240E026EFBEC11F0000E0001E96F000EFE
:101BE8005F6E000E5E6E080EF46F000E5D6E000EE6
:101BF8005C6E000E5B6E39019387120020EE11F0C7
:101C0800070EDE6AE806FDE201A00DEF0EF00FEF09
:101C18000EF01FEF0EF0095011260A5012220B5039
:101C280013220C5014220D5015220E5016220F505C
:101C3800172210501822D89009360A360B360C365F
:101C48000D360E360F361036D89008320732063267
:101C580005320432033202320132015002100310FD
:101C680004100510061007100810D8A43EEF0EF057
:101C780040EF0EF008EF0EF011C001F012C002F0B4
:101C880013C003F014C004F015C005F016C006F028
:101C980017C007F018C008F0120001C0DAF002C03F
:101CA800DBF0600007F0F6FF60000BF0F7FFF86A62
:101CB80008006F00D4FFDCF0010E0124036E000E53
:101CC8000220046E60000FF0F6FF600013F0F7FFCB
:101CD800F86A08006F00D4FFDDF0020E0124036EDD
:101CE800000E0220046E60000FF0F6FF600013F093
:101CF800F7FFF86A08006F00D4FFDEF0030E012436
:101D0800036E000E0220046E60000FF0F6FF600004
:101D180013F0F7FFF86A08006F00D4FFDFF0000E39
:101D28000001E06F1200000E0B6E000E0A6E210E0D
:101D3800D9EC11F0000ED9EC11F07F0ED9EC11F0AE
:101D4800220ED9EC11F0000ED9EC11F0070ED9ECE7
:101D580011F0000E0D6E000E0C6E400E036E200E7C
:101D68000C24046E010E0D20056E100E066E3C0E3E
:101D780070EC0FF00F0E0C26000E0D220C4A0D2AE7
:101D88000DBECEEF0EF0040E0D5CD8A0CEEF0EF017
:101D9800D0EF0EF0B1EF0EF01200390193A9D7EF92
:101DA8000EF0D9EF0EF0EFEF0EF0A3A9DEEF0EF074
:101DB800E0EF0EF0EFEF0EF002D8EDEF0EF00500B9
:101DC800FA6E0001F051FD6EF151FE6EFF6AFA5095
:101DD80012000AEF0FF093A7F4EF0EF0F6EF0EF0F3
:101DE8000AEF0FF0A3A7FBEF0EF0FDEF0EF00AEFDE
:101DF8000FF002D80AEF0FF00500FA6E0001F25159
:101E0800FD6EF351FE6EFF6AFA501200110054C0C5
:101E180058F055C059F0000E0001E26F000EE16F56
:101E280029EF0FF052C03EF053C03FF0580E406EFD
:101E3800000E416E56C042F057C043F0CEEC05F09C
:101E48003E500001E1273F50E223600063F1F6FFB6
:101E5800600067F1F7FFF86A0800F5500009D8A498
:101E680038EF0FF03AEF0FF016EF0FF0E1C052F035
:101E7800E2C053F01200016E0001F451D8B447EFEC
:101E88000FF049EF0FF040EF0FF0390193B94FEF22
:101E98000FF051EF0FF056EF0FF0600007F0EAFD7A
:101EA8006DEF0FF09399D20E5F24D96EDA6A000EA7
:101EB800DA22600007F0DFFF5F2A070E5F6467EF32
:101EC8000FF069EF0FF06BEF0FF0000E5F6E00017F
:101ED800F407390193891200076E04C008F005C0A1
:101EE80009F028EC11F0075007243D016E6F09EC4A
:101EF80011F006283D016C6F738BEAEC10F003506B
:101F080064EC10F093EF0FF0600023F0D9FF60004D
:101F180027F0DAFFDF5064EC10F0084A092A0606B9
:101F28000628D8A49AEF0FF09CEF0FF088EF0FF077
:101F3800CBEC10F0120001C003F002C004F0A7EFD0
:101F48000FF0014A022A600007F0F6FF60000BF06C
:101F5800F7FF000EF86E0F0EF76403D00800F55077
:101F680007D06F00DBFFE9FF6F00DFFFEAFFEF50EC
:101F78000009D8A4C2EF0FF0C4EF0FF0A5EF0FF0DF
:101F88000350015C016E04500258026E1200640E88
:101F980000016E6F000E6F6F60C070F061C071F06D
:101FA800000E736F000E726F000E756F000E746F67
:101FB800700E526E000E536E62C054F063C055F03E
:101FC8006E0E566E000E576E0BEC0FF0000172513C
:101FD8006025D96E73516121DA6E000EDF6E120032
:101FE800000E066E000E056E05500124036E0650A5
:101FF8000220046E60000FF0F6FF600013F0F7FF98
:10200800F86A200E0524D96E010E0620DA6E080043
:102018006F00D7FFDFFF054A062A040E065CD8A02A
:1020280018EF10F01AEF10F0F8EF0FF0120000EEB2
:1020380020F111EE00F0EE6AE550E150FCE1E250CB
:10204800FAE100EE00F1200EEE6AE806FDE100EE8E
:10205800C2F0280EEE6AE806FDE15F6A5E6A5D6A14
:102068005C6A5B6A5A6A080ED56E000ED66E000E60
:10207800D76E00010FEF00F0080E0001F46147EF82
:1020880010F049EF10F061EF10F0D20E5E24D96E17
:10209800DA6A000EDA22DF503D01EA6F5E2A070E87
:1020A8005E6459EF10F05BEF10F05DEF10F0000E7A
:1020B8005E6E0001F42B63EF10F039019399120062
:1020C800016E02685A50D8A46CEF10F06EEF10F051
:1020D80086EF10F081EF10F03D0178AB76EF10F04D
:1020E80078EF10F07DEF10F0600007F06BFD86EFE1
:1020F80010F0050EE82EFED700F0022E70EF10F05B
:10210800010E5A6E1200000E126E000E116E98EF3C
:1021180010F010C003F0046A0EC005F00FC006F0FE
:102128005EEC0BF0114A122A11500C24D96E125091
:102138000D20DA6EDF50106E1050D8A4A6EF10F004
:10214800A8EF10F08DEF10F012003F013E9F6000E5
:1021580007F03BFF01C004F002C005F003C006F021
:1021680005C004F006C005F0066A04503C6F600024
:102178000FF03DFF3E8F030E056E990E046EEC0EB8
:10218800E82EFED7042EFCD7052EFAD712000168D8
:102198005A50D8A4D2EF10F0D4EF10F0E9EF10F0B5
:1021A800E4EF10F03D0179A5DCEF10F0DEEF10F060
:1021B800E0EF10F0E9EF10F0050EE82EFED700F082
:1021C800012ED6EF10F0010E5A6E120001685A5017
:1021D800D8A4F1EF10F0F3EF10F008EF11F003EFCF
:1021E80011F03D0173BBFBEF10F0FDEF10F0FFEFB6
:1021F80010F008EF11F0050EE82EFED700F0012EC2
:10220800F5EF10F0010E5A6E120001685A50D8A46A
:1022180010EF11F012EF11F027EF11F022EF11F08B
:102228003D0177AF1AEF11F01CEF11F01EEF11F01E
:1022380027EF11F0050EE82EFED700F0012E14EF5F
:1022480011F0010E5A6E12003D0173AF2EEF11F01E
:1022580030EF11F038EF11F05A50D8B436EF11F0D2
:1022680038EF11F046EF11F0000E5A6E800E746FC1
:10227800000E756F030E7B6F840E736F000E796FFF
:10228800000E766F1200056E28EC11F0055005243B
:102298003D016E6F09EC11F0020E3D016C6F738BFE
:1022A800EAEC10F0035064EC10F0045064EC10F009
:1022B800CBEC10F01200CA0E5D24D96EDA6A000E5B
:1022C800DA226F00A3F7DFFF5D2A070E5D646FEF68
:1022D80011F071EF11F073EF11F0000E5D6E5B2AD3
:1022E8001200015003026F00CCFF05F06F00D0FF11
:1022F80006F001500402F350062602500302F35080
:10230800062605C001F006C002F01200100E3F01BB
:102318003E6F010E3F6F000E3A6F000E396F000ED0
:10232800386F000E3D6F820E3C6FF20E3B6F3E8F92
:102338001200000E3901C06F000EC16F470EC26F48
:10234800D70EC36FE00EC46F060EC56F3F0EC66F83
:10235800000EC76F12000DEC12F09DEC11F057EC57
:102368000DF0CDEC11F08AEC11F0AFEC0DF028EC8B
:1023780011F01200200E016E010E026E000E046EA6
:10238800000E036E040E066E000E056EFDEC08F0DE
:102398001200600E3901D96F000EDB6FFC0EDD6F85
:1023A800080EDF6F000EDE6F1200066E000E036E61
:1023B80006C004F03C0E47EC11F01200026E025009
:1023C8003FEC0FF0120001C0F0F002C0F1F0120073
:1023D80001C0F2F002C0F3F0120001C0ECF002C03C
:1023E800EDF0120001C0EEF002C0EFF0120001C0E3
:1023F800EAF002C0EBF01200000E026E800E016ED1
:102408001200000E026E400E016E12005FEC11F019
:0A2418001200D29A12001200120006
:10F22600000608205F0000000000000000002F001C
:10F236000000000700070000147F147F1400242A32
:10F246007F2A1200231308646200364955225000B3
:10F25600000503000000001C224100000041221CA2
:10F26600000014083E08140008083E0808000000C4
:10F27600A0600000080808080800006060000000A0
:10F286002010080402003E5149453E0000427F40DE
:10F2960000004261514946002141454B3100181496
:10F2A600127F10002745454539003C4A4949300040
:10F2B60001710905030036494949360006494929BD
:10F2C6001E00003636000000005636000000081406
:10F2D60022410000141414141400004122140800E2
:10F2E600020151090600324959513E007C121112A1
:10F2F6007C007F49494936003E41414122007F4119
:10F3060041221C007F49494941007F090909010042
:10F316003E4149497A007F0808087F0000417F4145
:10F3260000002040413F01007F08142241007F4039
:10F33600404040007F020C027F007F0408107F00DF
:10F346003E4141413E007F09090906003E415121E7
:10F356005E007F09192946004649494931000101E5
:10F366007F0101003F4040403F001F2040201F001A
:10F376003F4038403F0063140814630007087008D4
:10F386000700615149454300007F414100AA55AA43
:10F3960055AA55000041417F000004020102040005
:10F3A60040404040400000030500000020545454F3
:10F3B60078007F48444438003844444420003844A8
:10F3C60044487F00385454541800087E090102004E
:10F3D60018A4A4A47C007F080404780000447D409F
:10F3E60000004080847D00007F102844000000411A
:10F3F6007F4000007C04180478007C080404780030
:10F40600384444443800FC242424180018242418C2
:10F41600FC007C0804040800485454542000043FAF
:10F42600444020003C4040207C001C2040201C0022
:10F436003C4030403C004428102844001CA0A0A0BA
:10F446007C004464544C440000107C8200000000A0
:10F45600FF00000000827C10000000060909060477
:10F4660006205F00000003A000C00C00F94F806B6F
:10F47600EB00988C8052A58003000001C88089C0EB
:10F486000050850021C200084000208200002000B4
:10F49600188C00FA2F804BE0805A66808AA500E01F
:10F4A6008F80EAAB0072A9009A8C00FAAF804AA757
:10F4B6000001400009400021488051450089420072
:10F4C60042660072A6807A8780FAA500722500FA45
:10F4D6002700FAA880FA8800722B00F88F808BE844
:10F4E600808BE800F88D80F82080F90F80F9CF80B6
:10F4F600722700FA8400722740FA85804AA90083A1
:10F50600E800F02F00E06E00F0EF00D88D80C0EC30
:10F51600009AAC8003E880C081808BE00042040042
:10F52600082080020400312380F923003124803131
:10F536002F8031628023EA00255380F9038002E0A0
:10F546000006E000F8428003E000798780390380F6
:10F556003123007D23003127C078840029400043F1
:10F56600E40070270060660070670048C480745726
:10F576008059E68023E8800360008BE200610C007E
:10F586000810205F000000000000000000000000DE
:10F5960000000000000000F800000000000000333A
:10F5A6003000000000100C06100C060000000000E1
:10F5B6000000000040C07840C0784000043F0404CA
:10F5C6003F040400007088FC08300000001820FF8B
:10F5D600211E0000F008F000E018000000211C03C6
:10F5E6001E211E0000F00888700000001E21232442
:10F5F6001927211010160E00000000000000000060
:10F6060000000000000000E01804020000000007EF
:10F616001820400000020418E000000000402018F6
:10F6260007000000404080F0804040000202010FC9
:10F6360001020200000000F0000000000101011FAD
:10F6460001010100000000000000000080B0700011
:10F6560000000000000000000000000000010101A1
:10F666000101010100000000000000000030300030
:10F67600000000000000000080601804006018060A
:10F686000100000000E010080810E000000F102044
:10F6960020100F00001010F8000000000020203F8E
:10F6A6002020000000700808088870000030282418
:10F6B60022213000003008888848300000182020B9
:10F6C60020110E000000C02010F8000000070424DE
:10F6D600243F240000F80888880808000019212023
:10F6E60020110E0000E0108888180000000F11207D
:10F6F60020110E0000380808C83808000000003F36
:10F70600000000000070880808887000001C222194
:10F7160021221C0000E010080810E0000000312241
:10F7260022110F00000000C0C000000000000030E1
:10F736003000000000000080000000000000806033
:10F7460000000000000080402010080000010204B4
:10F75600081020004040404040404000040404049B
:10F766000404040000081020408000000020100857
:10F7760004020100007048080808F000000000308C
:10F7860036010000C030C828E810E000071827241A
:10F7960023140B000000C038E0000000203C2302C8
:10F7A6000227382008F8888888700000203F20202B
:10F7B60020110E00C030080808083800071820205D
:10F7C6002010080008F808080810E000203F202054
:10F7D60020100F0008F88888E8081000203F202035
:10F7E6002320180008F88888E8081000203F200029
:10F7F60003000000C0300808083800000718202061
:10F80600221E020008F808000008F808203F21011F
:10F8160001213F20000808F8080800000020203FCA
:10F826002020000000000808F8080800C08080803A
:10F836007F00000008F888C028180800203F200133
:10F846002638200008F8080000000000203F20208D
:10F856002020300008F8F800F8F80800203F003FA4
:10F86600003F200008F830C00008F808203F2000BC
:10F8760007183F00E01008080810E0000F102020CD
:10F8860020100F0008F808080808F000203F2101A2
:10F8960001010000E01008080810E0000F182424F9
:10F8A60038504F0008F8888888887000203F20006C
:10F8B600030C302000708808080838000038202122
:10F8C60021221C00180808F8080818000000203F2C
:10F8D6002000000008F808000008F808001F202093
:10F8E60020201F000878880000C838080000073864
:10F8F6000E010000F80800F80008F800033C0700B5
:10F90600073C0300081868808068180820302C031C
:10F91600032C30200838C800C83808000000203FF3
:10F926002000000010080808C838080020382621E2
:10F9360020201800000000FE020202000000007FE6
:10F9460040404000000C30C00000000000000001F4
:10F956000638C00000020202FE00000000404040DF
:10F966007F00000000000402020204000000000004
:10F976000000000000000000000000008080808081
:10F986008080808000020204000000000000000069
:10F996000000000000008080808000000019242202
:10F9A60022223F2008F8008080000000003F11203E
:10F9B60020110E000000008080800000000E112043
:10F9C60020201100000000808088F800000E112021
:10F9D60020103F200000808080800000001F22222F
:10F9E60022221300008080F0888888180020203F9B
:10F9F600202000000000808080808000006B9494AE
:10FA06009493600008F8008080800000203F210069
:10FA160000203F2000809898000000000020203F32
:10FA260020200000000000809898000000C0808020
:10FA3600807F000008F8000080808000203F2402BC
:10FA46002D302000000808F8000000000020203FAC
:10FA5600202000008080808080808000203F200061
:10FA66003F20003F8080008080800000203F2100F2
:10FA760000203F200000808080800000001F2020A2
:10FA860020201F00808000808000000080FFA120D1
:10FA960020110E000000008080808000000E1120E2
:10FAA60020A0FF80808080008080800020203F2171
:10FAB6002000010000008080808080000033242424
:10FAC60024241900008080E0808000000000001FD0
:10FAD600202000008080000000808000001F202081
:10FAE60020103F20808080000080808000010E3042
:10FAF6000806010080800080008080800F300C03A3
:10FB06000C300F0000808000808080000020312EA5
:10FB16000E312000808080000080808080818E7081
:10FB26001806010000808080808080000021302C33
:10FB36002221300000000000807C0202000000004C
:10FB4600003F404000000000FF00000000000000F1
:10FB5600FF0000000002027C800000000040403FE1
:10FB6600000000000006010102020404000000007B
:10FB760000000000FCFEFF0F03030303030303035F
:10FB8600030303030303030383838383838383833F
:10FB9600030303030303030303030303030303032F
:10FBA600FFFFFE000000000000000000000000FF54
:10FBB600FF000000FFFF000000001088888888F022
:10FBC600F0000000F8F8201018180000F9F90000FD
:10FBD60000001088888888F0F0000000FFFF080801
:10FBE60008F8F000000000FFFF000000F0F0888831
:10FBF60088F8F000FFFFFF00000000000000000092
:10FC06008060B8B83CFEFFFFFFFF3FBF3FFFFFFF2E
:10FC1600FFFF3EBE3C78F0C0000000000000000080
:10FC2600FFFFFF0000000000000000000000000FC2
:10FC36000F08080007030000000007070808000F68
:10FC46000F0000000F0F0000000000000F0F000063
:10FC5600000007070808000F0F0000000F0F080834
:10FC6600080707000000000F0F0000000307080840
:10FC760008080400FFFFFF0000000000000000006D
:10FC860023F8FFFFFEF0CFDFC7F0FFFFFFF0E7DF4F
:10FC9600CFF0FEFFFFF8E75F000000000000000065
:10FCA600FFFFFF000000000000000000000000C091
:10FCB600E0301010002000000000F0F0000000000E
:10FCC60000808080800000000000008080800000AE
:10FCD600000000F0F000000000808000000000003E
:10FCE600000000000000000000000000000000000E
:10FCF60000000000FFFFFF00000000000000000001
:10FD0600000003070F0F1F1F3F3F3F3F3F3F3F3F8F
:10FD16001F1F0F0F07030100000000000000000076
:10FD2600FFFFFF0000000000000000000000003F91
:10FD36007F808080804000000000FFFF0000003FC1
:10FD46007F8080807F7F000000007F7F80800000B2
:10FD5600000000FFFF1C142241808000000000000C
:10FD6600000000000000000000000000000000008D
:10FD760000000000FFFFFF00000000000000000080
:10FD8600000000000000000000000000000000402D
:10FD9600F0F0F0F0E0000000F0F0B0D0E00000007D
:10FDA600FFFFFF0000000000000000000000000050
:10FDB600000000000000000000000000000000003D
:10FDC600000000000000000000000000000000002D
:10FDD600000000000000000000000000000000001D
:10FDE600000000000000000000000000000000000D
:10FDF60000000000071F3F3C7070707070707070DC
:10FE060070707070707070707070707070707070EC
:10FE160071717171707070707071717170707070D5
:10FE26003F3F1F000000000000000000000000002F
:10FE360000000000000000000000000000000000BC
:10FE460000000000000000000000000000000000AC
:10FE5600000000000000000000000000000000009C
:10FE6600000000000000000000000000000000008C
:10FE7600000000000000000000000000000000007C
:10FE86003C64C08400000000F80C04040CF8000078
:10FE960000000000F00000000000101010E000005C
:10FEA6000000F0000000F0F000000000101010E06C
:10FEB600C00000000000000000000000000000007C
:10FEC600000000000000040080443C18000000F818
:10FED6008C04043CF800000000080CFC0000000044
:10FEE6000000FC840084FCF8000000000000000014
:10FEF60000000000000000000000000000000000FC
:10FF06000008090702000000070C08080C0700009B
:10FF1600102020301F00000002070908000F000013
:10FF260000000F0808000701000000070908000F7D
:10FF36000F000000000000000000000000000000AC
:10FF46000000000000000E0B08080808000000076B
:10FF56000F08080C070000000000000F000000005A
:10FF6600000000080804070100000000000000006F
:10FF76000000000053706565643A20253075206BDB
:10FF8600487A0A0A5072657373202B20616E6420CA
:10FF96002D0A666F72206D616E75616C206D6F64DF
:10FFA60065005072657373202B20616E64202D0AE4
:10FFB600666F72206175746F6D61746963206D6F11
:10FFC600646500507265737320616E792062757482
:10FFD600746F6E0A746F20546F67676C6520436C8C
:10FFE6006F636B004D616E75616C204D6F646500CB
:0AFFF60048494748004C4F570000EF
:020000040020DA
:10000000FF0FFF0FFF0FFF0FFF0FFF0FFF0FFF0F80
:020000040030CA
:0A0000008CFFF7FF9FFFFFFFFFFFDB
:00000001FF
